{
	"contract/marketplace.sol": {
		"Marketplace": {
			"abi": [
				{
					"inputs": [
						{
							"internalType": "uint256",
							"name": "_index",
							"type": "uint256"
						}
					],
					"name": "buyProduct",
					"outputs": [],
					"stateMutability": "payable",
					"type": "function"
				},
				{
					"inputs": [],
					"name": "getProductsLength",
					"outputs": [
						{
							"internalType": "uint256",
							"name": "",
							"type": "uint256"
						}
					],
					"stateMutability": "view",
					"type": "function"
				},
				{
					"inputs": [
						{
							"internalType": "uint256",
							"name": "_index",
							"type": "uint256"
						}
					],
					"name": "readProduct",
					"outputs": [
						{
							"internalType": "address payable",
							"name": "",
							"type": "address"
						},
						{
							"internalType": "string",
							"name": "",
							"type": "string"
						},
						{
							"internalType": "string",
							"name": "",
							"type": "string"
						},
						{
							"internalType": "string",
							"name": "",
							"type": "string"
						},
						{
							"internalType": "string",
							"name": "",
							"type": "string"
						},
						{
							"internalType": "uint256",
							"name": "",
							"type": "uint256"
						},
						{
							"internalType": "uint256",
							"name": "",
							"type": "uint256"
						}
					],
					"stateMutability": "view",
					"type": "function"
				},
				{
					"inputs": [
						{
							"internalType": "string",
							"name": "_name",
							"type": "string"
						},
						{
							"internalType": "string",
							"name": "_image",
							"type": "string"
						},
						{
							"internalType": "string",
							"name": "_description",
							"type": "string"
						},
						{
							"internalType": "string",
							"name": "_location",
							"type": "string"
						},
						{
							"internalType": "uint256",
							"name": "_price",
							"type": "uint256"
						}
					],
					"name": "writeProduct",
					"outputs": [],
					"stateMutability": "nonpayable",
					"type": "function"
				}
			],
			"devdoc": {
				"kind": "dev",
				"methods": {},
				"version": 1
			},
			"evm": {
				"assembly": "    /* \"contract/marketplace.sol\":660:2524  contract Marketplace {\r... */\n  mstore(0x40, 0x80)\n    /* \"contract/marketplace.sol\":721:722  0 */\n  0x00\n    /* \"contract/marketplace.sol\":690:722  uint internal productsLength = 0 */\n  dup1\n  sstore\n    /* \"contract/marketplace.sol\":765:807  0x874069Fa1Eb16D44d622F2e0Ca25eeA172369bC1 */\n  0x874069fa1eb16d44d622f2e0ca25eea172369bc1\n    /* \"contract/marketplace.sol\":729:807  address internal cUsdTokenAddress = 0x874069Fa1Eb16D44d622F2e0Ca25eeA172369bC1 */\n  0x01\n  exp(0x0100, 0x00)\n  dup2\n  sload\n  dup2\n  0xffffffffffffffffffffffffffffffffffffffff\n  mul\n  not\n  and\n  swap1\n  dup4\n  0xffffffffffffffffffffffffffffffffffffffff\n  and\n  mul\n  or\n  swap1\n  sstore\n  pop\n    /* \"contract/marketplace.sol\":660:2524  contract Marketplace {\r... */\n  callvalue\n  dup1\n  iszero\n  tag_1\n  jumpi\n  0x00\n  dup1\n  revert\ntag_1:\n  pop\n  dataSize(sub_0)\n  dup1\n  dataOffset(sub_0)\n  0x00\n  codecopy\n  0x00\n  return\nstop\n\nsub_0: assembly {\n        /* \"contract/marketplace.sol\":660:2524  contract Marketplace {\r... */\n      mstore(0x40, 0x80)\n      jumpi(tag_1, lt(calldatasize, 0x04))\n      shr(0xe0, calldataload(0x00))\n      dup1\n      0x1155dfe5\n      eq\n      tag_2\n      jumpi\n      dup1\n      0x8642269e\n      eq\n      tag_3\n      jumpi\n      dup1\n      0x8da8f27b\n      eq\n      tag_4\n      jumpi\n      dup1\n      0xfffa7e2e\n      eq\n      tag_5\n      jumpi\n    tag_1:\n      0x00\n      dup1\n      revert\n        /* \"contract/marketplace.sol\":2423:2521  function getProductsLength() public view returns (uint) {\r... */\n    tag_2:\n      callvalue\n      dup1\n      iszero\n      tag_6\n      jumpi\n      0x00\n      dup1\n      revert\n    tag_6:\n      pop\n      tag_7\n      tag_8\n      jump\t// in\n    tag_7:\n      mload(0x40)\n      tag_9\n      swap2\n      swap1\n      tag_10\n      jump\t// in\n    tag_9:\n      mload(0x40)\n      dup1\n      swap2\n      sub\n      swap1\n      return\n        /* \"contract/marketplace.sol\":2093:2411  function buyProduct(uint _index) public payable  {\r... */\n    tag_3:\n      tag_11\n      0x04\n      dup1\n      calldatasize\n      sub\n      dup2\n      add\n      swap1\n      tag_12\n      swap2\n      swap1\n      tag_13\n      jump\t// in\n    tag_12:\n      tag_14\n      jump\t// in\n    tag_11:\n      stop\n        /* \"contract/marketplace.sol\":1072:1547  function writeProduct(\r... */\n    tag_4:\n      callvalue\n      dup1\n      iszero\n      tag_15\n      jumpi\n      0x00\n      dup1\n      revert\n    tag_15:\n      pop\n      tag_16\n      0x04\n      dup1\n      calldatasize\n      sub\n      dup2\n      add\n      swap1\n      tag_17\n      swap2\n      swap1\n      tag_18\n      jump\t// in\n    tag_17:\n      tag_19\n      jump\t// in\n    tag_16:\n      stop\n        /* \"contract/marketplace.sol\":1555:2081  function readProduct(uint _index) public view returns (\r... */\n    tag_5:\n      callvalue\n      dup1\n      iszero\n      tag_20\n      jumpi\n      0x00\n      dup1\n      revert\n    tag_20:\n      pop\n      tag_21\n      0x04\n      dup1\n      calldatasize\n      sub\n      dup2\n      add\n      swap1\n      tag_22\n      swap2\n      swap1\n      tag_13\n      jump\t// in\n    tag_22:\n      tag_23\n      jump\t// in\n    tag_21:\n      mload(0x40)\n      tag_24\n      swap8\n      swap7\n      swap6\n      swap5\n      swap4\n      swap3\n      swap2\n      swap1\n      tag_25\n      jump\t// in\n    tag_24:\n      mload(0x40)\n      dup1\n      swap2\n      sub\n      swap1\n      return\n        /* \"contract/marketplace.sol\":2423:2521  function getProductsLength() public view returns (uint) {\r... */\n    tag_8:\n        /* \"contract/marketplace.sol\":2473:2477  uint */\n      0x00\n        /* \"contract/marketplace.sol\":2498:2512  productsLength */\n      dup1\n      sload\n        /* \"contract/marketplace.sol\":2490:2513  return (productsLength) */\n      swap1\n      pop\n        /* \"contract/marketplace.sol\":2423:2521  function getProductsLength() public view returns (uint) {\r... */\n      swap1\n      jump\t// out\n        /* \"contract/marketplace.sol\":2093:2411  function buyProduct(uint _index) public payable  {\r... */\n    tag_14:\n        /* \"contract/marketplace.sol\":2185:2201  cUsdTokenAddress */\n      0x01\n      0x00\n      swap1\n      sload\n      swap1\n      0x0100\n      exp\n      swap1\n      div\n      0xffffffffffffffffffffffffffffffffffffffff\n      and\n        /* \"contract/marketplace.sol\":2173:2215  IERC20Token(cUsdTokenAddress).transferFrom */\n      0xffffffffffffffffffffffffffffffffffffffff\n      and\n      0x23b872dd\n        /* \"contract/marketplace.sol\":2230:2240  msg.sender */\n      caller\n        /* \"contract/marketplace.sol\":2255:2263  products */\n      0x02\n        /* \"contract/marketplace.sol\":2255:2271  products[_index] */\n      0x00\n        /* \"contract/marketplace.sol\":2264:2270  _index */\n      dup6\n        /* \"contract/marketplace.sol\":2255:2271  products[_index] */\n      dup2\n      mstore\n      0x20\n      add\n      swap1\n      dup2\n      mstore\n      0x20\n      add\n      0x00\n      keccak256\n        /* \"contract/marketplace.sol\":2255:2277  products[_index].OId */\n      0x00\n      add\n      0x00\n      swap1\n      sload\n      swap1\n      0x0100\n      exp\n      swap1\n      div\n      0xffffffffffffffffffffffffffffffffffffffff\n      and\n        /* \"contract/marketplace.sol\":2292:2300  products */\n      0x02\n        /* \"contract/marketplace.sol\":2292:2308  products[_index] */\n      0x00\n        /* \"contract/marketplace.sol\":2301:2307  _index */\n      dup7\n        /* \"contract/marketplace.sol\":2292:2308  products[_index] */\n      dup2\n      mstore\n      0x20\n      add\n      swap1\n      dup2\n      mstore\n      0x20\n      add\n      0x00\n      keccak256\n        /* \"contract/marketplace.sol\":2292:2314  products[_index].price */\n      0x05\n      add\n      sload\n        /* \"contract/marketplace.sol\":2173:2327  IERC20Token(cUsdTokenAddress).transferFrom(\r... */\n      mload(0x40)\n      dup5\n      0xffffffff\n      and\n      0xe0\n      shl\n      dup2\n      mstore\n      0x04\n      add\n      tag_28\n      swap4\n      swap3\n      swap2\n      swap1\n      tag_29\n      jump\t// in\n    tag_28:\n      0x20\n      mload(0x40)\n      dup1\n      dup4\n      sub\n      dup2\n      0x00\n      dup8\n      dup1\n      extcodesize\n      iszero\n      dup1\n      iszero\n      tag_30\n      jumpi\n      0x00\n      dup1\n      revert\n    tag_30:\n      pop\n      gas\n      call\n      iszero\n      dup1\n      iszero\n      tag_32\n      jumpi\n      returndatasize\n      0x00\n      dup1\n      returndatacopy\n      revert(0x00, returndatasize)\n    tag_32:\n      pop\n      pop\n      pop\n      pop\n      mload(0x40)\n      returndatasize\n      not(0x1f)\n      0x1f\n      dup3\n      add\n      and\n      dup3\n      add\n      dup1\n      0x40\n      mstore\n      pop\n      dup2\n      add\n      swap1\n      tag_33\n      swap2\n      swap1\n      tag_34\n      jump\t// in\n    tag_33:\n        /* \"contract/marketplace.sol\":2153:2369  require(\r... */\n      tag_35\n      jumpi\n      mload(0x40)\n      0x08c379a000000000000000000000000000000000000000000000000000000000\n      dup2\n      mstore\n      0x04\n      add\n      tag_36\n      swap1\n      tag_37\n      jump\t// in\n    tag_36:\n      mload(0x40)\n      dup1\n      swap2\n      sub\n      swap1\n      revert\n    tag_35:\n        /* \"contract/marketplace.sol\":2380:2388  products */\n      0x02\n        /* \"contract/marketplace.sol\":2380:2396  products[_index] */\n      0x00\n        /* \"contract/marketplace.sol\":2389:2395  _index */\n      dup3\n        /* \"contract/marketplace.sol\":2380:2396  products[_index] */\n      dup2\n      mstore\n      0x20\n      add\n      swap1\n      dup2\n      mstore\n      0x20\n      add\n      0x00\n      keccak256\n        /* \"contract/marketplace.sol\":2380:2401  products[_index].sold */\n      0x06\n      add\n      0x00\n        /* \"contract/marketplace.sol\":2380:2403  products[_index].sold++ */\n      dup2\n      sload\n      dup1\n      swap3\n      swap2\n      swap1\n      tag_38\n      swap1\n      tag_39\n      jump\t// in\n    tag_38:\n      swap2\n      swap1\n      pop\n      sstore\n      pop\n        /* \"contract/marketplace.sol\":2093:2411  function buyProduct(uint _index) public payable  {\r... */\n      pop\n      jump\t// out\n        /* \"contract/marketplace.sol\":1072:1547  function writeProduct(\r... */\n    tag_19:\n        /* \"contract/marketplace.sol\":1275:1285  uint _sold */\n      0x00\n        /* \"contract/marketplace.sol\":1327:1512  Product(\r... */\n      mload(0x40)\n      dup1\n      0xe0\n      add\n      0x40\n      mstore\n      dup1\n        /* \"contract/marketplace.sol\":1357:1367  msg.sender */\n      caller\n        /* \"contract/marketplace.sol\":1327:1512  Product(\r... */\n      0xffffffffffffffffffffffffffffffffffffffff\n      and\n      dup2\n      mstore\n      0x20\n      add\n        /* \"contract/marketplace.sol\":1383:1388  _name */\n      dup8\n        /* \"contract/marketplace.sol\":1327:1512  Product(\r... */\n      dup2\n      mstore\n      0x20\n      add\n        /* \"contract/marketplace.sol\":1403:1409  _image */\n      dup7\n        /* \"contract/marketplace.sol\":1327:1512  Product(\r... */\n      dup2\n      mstore\n      0x20\n      add\n        /* \"contract/marketplace.sol\":1424:1436  _description */\n      dup6\n        /* \"contract/marketplace.sol\":1327:1512  Product(\r... */\n      dup2\n      mstore\n      0x20\n      add\n        /* \"contract/marketplace.sol\":1451:1460  _location */\n      dup5\n        /* \"contract/marketplace.sol\":1327:1512  Product(\r... */\n      dup2\n      mstore\n      0x20\n      add\n        /* \"contract/marketplace.sol\":1475:1481  _price */\n      dup4\n        /* \"contract/marketplace.sol\":1327:1512  Product(\r... */\n      dup2\n      mstore\n      0x20\n      add\n        /* \"contract/marketplace.sol\":1496:1501  _sold */\n      dup3\n        /* \"contract/marketplace.sol\":1327:1512  Product(\r... */\n      dup2\n      mstore\n      pop\n        /* \"contract/marketplace.sol\":1300:1308  products */\n      0x02\n        /* \"contract/marketplace.sol\":1300:1324  products[productsLength] */\n      0x00\n        /* \"contract/marketplace.sol\":1309:1323  productsLength */\n      dup1\n      sload\n        /* \"contract/marketplace.sol\":1300:1324  products[productsLength] */\n      dup2\n      mstore\n      0x20\n      add\n      swap1\n      dup2\n      mstore\n      0x20\n      add\n      0x00\n      keccak256\n        /* \"contract/marketplace.sol\":1300:1512  products[productsLength] = Product(\r... */\n      0x00\n      dup3\n      add\n      mload\n      dup2\n      0x00\n      add\n      exp(0x0100, 0x00)\n      dup2\n      sload\n      dup2\n      0xffffffffffffffffffffffffffffffffffffffff\n      mul\n      not\n      and\n      swap1\n      dup4\n      0xffffffffffffffffffffffffffffffffffffffff\n      and\n      mul\n      or\n      swap1\n      sstore\n      pop\n      0x20\n      dup3\n      add\n      mload\n      dup2\n      0x01\n      add\n      swap1\n      dup1\n      mload\n      swap1\n      0x20\n      add\n      swap1\n      tag_41\n      swap3\n      swap2\n      swap1\n      tag_42\n      jump\t// in\n    tag_41:\n      pop\n      0x40\n      dup3\n      add\n      mload\n      dup2\n      0x02\n      add\n      swap1\n      dup1\n      mload\n      swap1\n      0x20\n      add\n      swap1\n      tag_43\n      swap3\n      swap2\n      swap1\n      tag_42\n      jump\t// in\n    tag_43:\n      pop\n      0x60\n      dup3\n      add\n      mload\n      dup2\n      0x03\n      add\n      swap1\n      dup1\n      mload\n      swap1\n      0x20\n      add\n      swap1\n      tag_44\n      swap3\n      swap2\n      swap1\n      tag_42\n      jump\t// in\n    tag_44:\n      pop\n      0x80\n      dup3\n      add\n      mload\n      dup2\n      0x04\n      add\n      swap1\n      dup1\n      mload\n      swap1\n      0x20\n      add\n      swap1\n      tag_45\n      swap3\n      swap2\n      swap1\n      tag_42\n      jump\t// in\n    tag_45:\n      pop\n      0xa0\n      dup3\n      add\n      mload\n      dup2\n      0x05\n      add\n      sstore\n      0xc0\n      dup3\n      add\n      mload\n      dup2\n      0x06\n      add\n      sstore\n      swap1\n      pop\n      pop\n        /* \"contract/marketplace.sol\":1523:1537  productsLength */\n      0x00\n      dup1\n        /* \"contract/marketplace.sol\":1523:1539  productsLength++ */\n      dup2\n      sload\n      dup1\n      swap3\n      swap2\n      swap1\n      tag_46\n      swap1\n      tag_39\n      jump\t// in\n    tag_46:\n      swap2\n      swap1\n      pop\n      sstore\n      pop\n        /* \"contract/marketplace.sol\":1264:1547  {\r... */\n      pop\n        /* \"contract/marketplace.sol\":1072:1547  function writeProduct(\r... */\n      pop\n      pop\n      pop\n      pop\n      pop\n      jump\t// out\n        /* \"contract/marketplace.sol\":1555:2081  function readProduct(uint _index) public view returns (\r... */\n    tag_23:\n        /* \"contract/marketplace.sol\":1620:1635  address payable */\n      0x00\n        /* \"contract/marketplace.sol\":1646:1659  string memory */\n      0x60\n        /* \"contract/marketplace.sol\":1671:1684  string memory */\n      dup1\n        /* \"contract/marketplace.sol\":1696:1709  string memory */\n      0x60\n        /* \"contract/marketplace.sol\":1721:1734  string memory */\n      dup1\n        /* \"contract/marketplace.sol\":1746:1750  uint */\n      0x00\n        /* \"contract/marketplace.sol\":1762:1766  uint */\n      dup1\n        /* \"contract/marketplace.sol\":1807:1815  products */\n      0x02\n        /* \"contract/marketplace.sol\":1807:1823  products[_index] */\n      0x00\n        /* \"contract/marketplace.sol\":1816:1822  _index */\n      dup10\n        /* \"contract/marketplace.sol\":1807:1823  products[_index] */\n      dup2\n      mstore\n      0x20\n      add\n      swap1\n      dup2\n      mstore\n      0x20\n      add\n      0x00\n      keccak256\n        /* \"contract/marketplace.sol\":1807:1829  products[_index].OId */\n      0x00\n      add\n      0x00\n      swap1\n      sload\n      swap1\n      0x0100\n      exp\n      swap1\n      div\n      0xffffffffffffffffffffffffffffffffffffffff\n      and\n        /* \"contract/marketplace.sol\":1844:1852  products */\n      0x02\n        /* \"contract/marketplace.sol\":1844:1860  products[_index] */\n      0x00\n        /* \"contract/marketplace.sol\":1853:1859  _index */\n      dup11\n        /* \"contract/marketplace.sol\":1844:1860  products[_index] */\n      dup2\n      mstore\n      0x20\n      add\n      swap1\n      dup2\n      mstore\n      0x20\n      add\n      0x00\n      keccak256\n        /* \"contract/marketplace.sol\":1844:1865  products[_index].name */\n      0x01\n      add\n        /* \"contract/marketplace.sol\":1881:1889  products */\n      0x02\n        /* \"contract/marketplace.sol\":1881:1897  products[_index] */\n      0x00\n        /* \"contract/marketplace.sol\":1890:1896  _index */\n      dup12\n        /* \"contract/marketplace.sol\":1881:1897  products[_index] */\n      dup2\n      mstore\n      0x20\n      add\n      swap1\n      dup2\n      mstore\n      0x20\n      add\n      0x00\n      keccak256\n        /* \"contract/marketplace.sol\":1881:1903  products[_index].image */\n      0x02\n      add\n        /* \"contract/marketplace.sol\":1919:1927  products */\n      0x02\n        /* \"contract/marketplace.sol\":1919:1935  products[_index] */\n      0x00\n        /* \"contract/marketplace.sol\":1928:1934  _index */\n      dup13\n        /* \"contract/marketplace.sol\":1919:1935  products[_index] */\n      dup2\n      mstore\n      0x20\n      add\n      swap1\n      dup2\n      mstore\n      0x20\n      add\n      0x00\n      keccak256\n        /* \"contract/marketplace.sol\":1919:1947  products[_index].description */\n      0x03\n      add\n        /* \"contract/marketplace.sol\":1963:1971  products */\n      0x02\n        /* \"contract/marketplace.sol\":1963:1979  products[_index] */\n      0x00\n        /* \"contract/marketplace.sol\":1972:1978  _index */\n      dup14\n        /* \"contract/marketplace.sol\":1963:1979  products[_index] */\n      dup2\n      mstore\n      0x20\n      add\n      swap1\n      dup2\n      mstore\n      0x20\n      add\n      0x00\n      keccak256\n        /* \"contract/marketplace.sol\":1963:1988  products[_index].location */\n      0x04\n      add\n        /* \"contract/marketplace.sol\":2004:2012  products */\n      0x02\n        /* \"contract/marketplace.sol\":2004:2020  products[_index] */\n      0x00\n        /* \"contract/marketplace.sol\":2013:2019  _index */\n      dup15\n        /* \"contract/marketplace.sol\":2004:2020  products[_index] */\n      dup2\n      mstore\n      0x20\n      add\n      swap1\n      dup2\n      mstore\n      0x20\n      add\n      0x00\n      keccak256\n        /* \"contract/marketplace.sol\":2004:2026  products[_index].price */\n      0x05\n      add\n      sload\n        /* \"contract/marketplace.sol\":2041:2049  products */\n      0x02\n        /* \"contract/marketplace.sol\":2041:2057  products[_index] */\n      0x00\n        /* \"contract/marketplace.sol\":2050:2056  _index */\n      dup16\n        /* \"contract/marketplace.sol\":2041:2057  products[_index] */\n      dup2\n      mstore\n      0x20\n      add\n      swap1\n      dup2\n      mstore\n      0x20\n      add\n      0x00\n      keccak256\n        /* \"contract/marketplace.sol\":2041:2062  products[_index].sold */\n      0x06\n      add\n      sload\n        /* \"contract/marketplace.sol\":1785:2073  return (\r... */\n      dup6\n      dup1\n      sload\n      tag_48\n      swap1\n      tag_49\n      jump\t// in\n    tag_48:\n      dup1\n      0x1f\n      add\n      0x20\n      dup1\n      swap2\n      div\n      mul\n      0x20\n      add\n      mload(0x40)\n      swap1\n      dup2\n      add\n      0x40\n      mstore\n      dup1\n      swap3\n      swap2\n      swap1\n      dup2\n      dup2\n      mstore\n      0x20\n      add\n      dup3\n      dup1\n      sload\n      tag_50\n      swap1\n      tag_49\n      jump\t// in\n    tag_50:\n      dup1\n      iszero\n      tag_51\n      jumpi\n      dup1\n      0x1f\n      lt\n      tag_52\n      jumpi\n      0x0100\n      dup1\n      dup4\n      sload\n      div\n      mul\n      dup4\n      mstore\n      swap2\n      0x20\n      add\n      swap2\n      jump(tag_51)\n    tag_52:\n      dup3\n      add\n      swap2\n      swap1\n      0x00\n      mstore\n      keccak256(0x00, 0x20)\n      swap1\n    tag_53:\n      dup2\n      sload\n      dup2\n      mstore\n      swap1\n      0x01\n      add\n      swap1\n      0x20\n      add\n      dup1\n      dup4\n      gt\n      tag_53\n      jumpi\n      dup3\n      swap1\n      sub\n      0x1f\n      and\n      dup3\n      add\n      swap2\n    tag_51:\n      pop\n      pop\n      pop\n      pop\n      pop\n      swap6\n      pop\n      dup5\n      dup1\n      sload\n      tag_54\n      swap1\n      tag_49\n      jump\t// in\n    tag_54:\n      dup1\n      0x1f\n      add\n      0x20\n      dup1\n      swap2\n      div\n      mul\n      0x20\n      add\n      mload(0x40)\n      swap1\n      dup2\n      add\n      0x40\n      mstore\n      dup1\n      swap3\n      swap2\n      swap1\n      dup2\n      dup2\n      mstore\n      0x20\n      add\n      dup3\n      dup1\n      sload\n      tag_55\n      swap1\n      tag_49\n      jump\t// in\n    tag_55:\n      dup1\n      iszero\n      tag_56\n      jumpi\n      dup1\n      0x1f\n      lt\n      tag_57\n      jumpi\n      0x0100\n      dup1\n      dup4\n      sload\n      div\n      mul\n      dup4\n      mstore\n      swap2\n      0x20\n      add\n      swap2\n      jump(tag_56)\n    tag_57:\n      dup3\n      add\n      swap2\n      swap1\n      0x00\n      mstore\n      keccak256(0x00, 0x20)\n      swap1\n    tag_58:\n      dup2\n      sload\n      dup2\n      mstore\n      swap1\n      0x01\n      add\n      swap1\n      0x20\n      add\n      dup1\n      dup4\n      gt\n      tag_58\n      jumpi\n      dup3\n      swap1\n      sub\n      0x1f\n      and\n      dup3\n      add\n      swap2\n    tag_56:\n      pop\n      pop\n      pop\n      pop\n      pop\n      swap5\n      pop\n      dup4\n      dup1\n      sload\n      tag_59\n      swap1\n      tag_49\n      jump\t// in\n    tag_59:\n      dup1\n      0x1f\n      add\n      0x20\n      dup1\n      swap2\n      div\n      mul\n      0x20\n      add\n      mload(0x40)\n      swap1\n      dup2\n      add\n      0x40\n      mstore\n      dup1\n      swap3\n      swap2\n      swap1\n      dup2\n      dup2\n      mstore\n      0x20\n      add\n      dup3\n      dup1\n      sload\n      tag_60\n      swap1\n      tag_49\n      jump\t// in\n    tag_60:\n      dup1\n      iszero\n      tag_61\n      jumpi\n      dup1\n      0x1f\n      lt\n      tag_62\n      jumpi\n      0x0100\n      dup1\n      dup4\n      sload\n      div\n      mul\n      dup4\n      mstore\n      swap2\n      0x20\n      add\n      swap2\n      jump(tag_61)\n    tag_62:\n      dup3\n      add\n      swap2\n      swap1\n      0x00\n      mstore\n      keccak256(0x00, 0x20)\n      swap1\n    tag_63:\n      dup2\n      sload\n      dup2\n      mstore\n      swap1\n      0x01\n      add\n      swap1\n      0x20\n      add\n      dup1\n      dup4\n      gt\n      tag_63\n      jumpi\n      dup3\n      swap1\n      sub\n      0x1f\n      and\n      dup3\n      add\n      swap2\n    tag_61:\n      pop\n      pop\n      pop\n      pop\n      pop\n      swap4\n      pop\n      dup3\n      dup1\n      sload\n      tag_64\n      swap1\n      tag_49\n      jump\t// in\n    tag_64:\n      dup1\n      0x1f\n      add\n      0x20\n      dup1\n      swap2\n      div\n      mul\n      0x20\n      add\n      mload(0x40)\n      swap1\n      dup2\n      add\n      0x40\n      mstore\n      dup1\n      swap3\n      swap2\n      swap1\n      dup2\n      dup2\n      mstore\n      0x20\n      add\n      dup3\n      dup1\n      sload\n      tag_65\n      swap1\n      tag_49\n      jump\t// in\n    tag_65:\n      dup1\n      iszero\n      tag_66\n      jumpi\n      dup1\n      0x1f\n      lt\n      tag_67\n      jumpi\n      0x0100\n      dup1\n      dup4\n      sload\n      div\n      mul\n      dup4\n      mstore\n      swap2\n      0x20\n      add\n      swap2\n      jump(tag_66)\n    tag_67:\n      dup3\n      add\n      swap2\n      swap1\n      0x00\n      mstore\n      keccak256(0x00, 0x20)\n      swap1\n    tag_68:\n      dup2\n      sload\n      dup2\n      mstore\n      swap1\n      0x01\n      add\n      swap1\n      0x20\n      add\n      dup1\n      dup4\n      gt\n      tag_68\n      jumpi\n      dup3\n      swap1\n      sub\n      0x1f\n      and\n      dup3\n      add\n      swap2\n    tag_66:\n      pop\n      pop\n      pop\n      pop\n      pop\n      swap3\n      pop\n      swap7\n      pop\n      swap7\n      pop\n      swap7\n      pop\n      swap7\n      pop\n      swap7\n      pop\n      swap7\n      pop\n      swap7\n      pop\n        /* \"contract/marketplace.sol\":1555:2081  function readProduct(uint _index) public view returns (\r... */\n      swap2\n      swap4\n      swap6\n      swap8\n      swap1\n      swap3\n      swap5\n      swap7\n      pop\n      jump\t// out\n    tag_42:\n      dup3\n      dup1\n      sload\n      tag_69\n      swap1\n      tag_49\n      jump\t// in\n    tag_69:\n      swap1\n      0x00\n      mstore\n      keccak256(0x00, 0x20)\n      swap1\n      0x1f\n      add\n      0x20\n      swap1\n      div\n      dup2\n      add\n      swap3\n      dup3\n      tag_71\n      jumpi\n      0x00\n      dup6\n      sstore\n      jump(tag_70)\n    tag_71:\n      dup3\n      0x1f\n      lt\n      tag_72\n      jumpi\n      dup1\n      mload\n      not(0xff)\n      and\n      dup4\n      dup1\n      add\n      or\n      dup6\n      sstore\n      jump(tag_70)\n    tag_72:\n      dup3\n      dup1\n      add\n      0x01\n      add\n      dup6\n      sstore\n      dup3\n      iszero\n      tag_70\n      jumpi\n      swap2\n      dup3\n      add\n    tag_73:\n      dup3\n      dup2\n      gt\n      iszero\n      tag_74\n      jumpi\n      dup3\n      mload\n      dup3\n      sstore\n      swap2\n      0x20\n      add\n      swap2\n      swap1\n      0x01\n      add\n      swap1\n      jump(tag_73)\n    tag_74:\n    tag_70:\n      pop\n      swap1\n      pop\n      tag_75\n      swap2\n      swap1\n      tag_76\n      jump\t// in\n    tag_75:\n      pop\n      swap1\n      jump\t// out\n    tag_76:\n    tag_77:\n      dup1\n      dup3\n      gt\n      iszero\n      tag_78\n      jumpi\n      0x00\n      dup2\n      0x00\n      swap1\n      sstore\n      pop\n      0x01\n      add\n      jump(tag_77)\n    tag_78:\n      pop\n      swap1\n      jump\t// out\n        /* \"#utility.yul\":7:419   */\n    tag_80:\n        /* \"#utility.yul\":85:90   */\n      0x00\n        /* \"#utility.yul\":110:176   */\n      tag_82\n        /* \"#utility.yul\":126:175   */\n      tag_83\n        /* \"#utility.yul\":168:174   */\n      dup5\n        /* \"#utility.yul\":126:175   */\n      tag_84\n      jump\t// in\n    tag_83:\n        /* \"#utility.yul\":110:176   */\n      tag_85\n      jump\t// in\n    tag_82:\n        /* \"#utility.yul\":101:176   */\n      swap1\n      pop\n        /* \"#utility.yul\":199:205   */\n      dup3\n        /* \"#utility.yul\":192:197   */\n      dup2\n        /* \"#utility.yul\":185:206   */\n      mstore\n        /* \"#utility.yul\":237:241   */\n      0x20\n        /* \"#utility.yul\":230:235   */\n      dup2\n        /* \"#utility.yul\":226:242   */\n      add\n        /* \"#utility.yul\":275:278   */\n      dup5\n        /* \"#utility.yul\":266:272   */\n      dup5\n        /* \"#utility.yul\":261:264   */\n      dup5\n        /* \"#utility.yul\":257:273   */\n      add\n        /* \"#utility.yul\":254:279   */\n      gt\n        /* \"#utility.yul\":251:363   */\n      iszero\n      tag_86\n      jumpi\n        /* \"#utility.yul\":282:361   */\n      tag_87\n      tag_88\n      jump\t// in\n    tag_87:\n        /* \"#utility.yul\":251:363   */\n    tag_86:\n        /* \"#utility.yul\":372:413   */\n      tag_89\n        /* \"#utility.yul\":406:412   */\n      dup5\n        /* \"#utility.yul\":401:404   */\n      dup3\n        /* \"#utility.yul\":396:399   */\n      dup6\n        /* \"#utility.yul\":372:413   */\n      tag_90\n      jump\t// in\n    tag_89:\n        /* \"#utility.yul\":91:419   */\n      pop\n        /* \"#utility.yul\":7:419   */\n      swap4\n      swap3\n      pop\n      pop\n      pop\n      jump\t// out\n        /* \"#utility.yul\":425:562   */\n    tag_91:\n        /* \"#utility.yul\":479:484   */\n      0x00\n        /* \"#utility.yul\":510:516   */\n      dup2\n        /* \"#utility.yul\":504:517   */\n      mload\n        /* \"#utility.yul\":495:517   */\n      swap1\n      pop\n        /* \"#utility.yul\":526:556   */\n      tag_93\n        /* \"#utility.yul\":550:555   */\n      dup2\n        /* \"#utility.yul\":526:556   */\n      tag_94\n      jump\t// in\n    tag_93:\n        /* \"#utility.yul\":425:562   */\n      swap3\n      swap2\n      pop\n      pop\n      jump\t// out\n        /* \"#utility.yul\":582:922   */\n    tag_95:\n        /* \"#utility.yul\":638:643   */\n      0x00\n        /* \"#utility.yul\":687:690   */\n      dup3\n        /* \"#utility.yul\":680:684   */\n      0x1f\n        /* \"#utility.yul\":672:678   */\n      dup4\n        /* \"#utility.yul\":668:685   */\n      add\n        /* \"#utility.yul\":664:691   */\n      slt\n        /* \"#utility.yul\":654:776   */\n      tag_97\n      jumpi\n        /* \"#utility.yul\":695:774   */\n      tag_98\n      tag_99\n      jump\t// in\n    tag_98:\n        /* \"#utility.yul\":654:776   */\n    tag_97:\n        /* \"#utility.yul\":812:818   */\n      dup2\n        /* \"#utility.yul\":799:819   */\n      calldataload\n        /* \"#utility.yul\":837:916   */\n      tag_100\n        /* \"#utility.yul\":912:915   */\n      dup5\n        /* \"#utility.yul\":904:910   */\n      dup3\n        /* \"#utility.yul\":897:901   */\n      0x20\n        /* \"#utility.yul\":889:895   */\n      dup7\n        /* \"#utility.yul\":885:902   */\n      add\n        /* \"#utility.yul\":837:916   */\n      tag_80\n      jump\t// in\n    tag_100:\n        /* \"#utility.yul\":828:916   */\n      swap2\n      pop\n        /* \"#utility.yul\":644:922   */\n      pop\n        /* \"#utility.yul\":582:922   */\n      swap3\n      swap2\n      pop\n      pop\n      jump\t// out\n        /* \"#utility.yul\":928:1067   */\n    tag_101:\n        /* \"#utility.yul\":974:979   */\n      0x00\n        /* \"#utility.yul\":1012:1018   */\n      dup2\n        /* \"#utility.yul\":999:1019   */\n      calldataload\n        /* \"#utility.yul\":990:1019   */\n      swap1\n      pop\n        /* \"#utility.yul\":1028:1061   */\n      tag_103\n        /* \"#utility.yul\":1055:1060   */\n      dup2\n        /* \"#utility.yul\":1028:1061   */\n      tag_104\n      jump\t// in\n    tag_103:\n        /* \"#utility.yul\":928:1067   */\n      swap3\n      swap2\n      pop\n      pop\n      jump\t// out\n        /* \"#utility.yul\":1073:1418   */\n    tag_34:\n        /* \"#utility.yul\":1140:1146   */\n      0x00\n        /* \"#utility.yul\":1189:1191   */\n      0x20\n        /* \"#utility.yul\":1177:1186   */\n      dup3\n        /* \"#utility.yul\":1168:1175   */\n      dup5\n        /* \"#utility.yul\":1164:1187   */\n      sub\n        /* \"#utility.yul\":1160:1192   */\n      slt\n        /* \"#utility.yul\":1157:1276   */\n      iszero\n      tag_106\n      jumpi\n        /* \"#utility.yul\":1195:1274   */\n      tag_107\n      tag_108\n      jump\t// in\n    tag_107:\n        /* \"#utility.yul\":1157:1276   */\n    tag_106:\n        /* \"#utility.yul\":1315:1316   */\n      0x00\n        /* \"#utility.yul\":1340:1401   */\n      tag_109\n        /* \"#utility.yul\":1393:1400   */\n      dup5\n        /* \"#utility.yul\":1384:1390   */\n      dup3\n        /* \"#utility.yul\":1373:1382   */\n      dup6\n        /* \"#utility.yul\":1369:1391   */\n      add\n        /* \"#utility.yul\":1340:1401   */\n      tag_91\n      jump\t// in\n    tag_109:\n        /* \"#utility.yul\":1330:1401   */\n      swap2\n      pop\n        /* \"#utility.yul\":1286:1411   */\n      pop\n        /* \"#utility.yul\":1073:1418   */\n      swap3\n      swap2\n      pop\n      pop\n      jump\t// out\n        /* \"#utility.yul\":1424:3055   */\n    tag_18:\n        /* \"#utility.yul\":1559:1565   */\n      0x00\n        /* \"#utility.yul\":1567:1573   */\n      dup1\n        /* \"#utility.yul\":1575:1581   */\n      0x00\n        /* \"#utility.yul\":1583:1589   */\n      dup1\n        /* \"#utility.yul\":1591:1597   */\n      0x00\n        /* \"#utility.yul\":1640:1643   */\n      0xa0\n        /* \"#utility.yul\":1628:1637   */\n      dup7\n        /* \"#utility.yul\":1619:1626   */\n      dup9\n        /* \"#utility.yul\":1615:1638   */\n      sub\n        /* \"#utility.yul\":1611:1644   */\n      slt\n        /* \"#utility.yul\":1608:1728   */\n      iszero\n      tag_111\n      jumpi\n        /* \"#utility.yul\":1647:1726   */\n      tag_112\n      tag_108\n      jump\t// in\n    tag_112:\n        /* \"#utility.yul\":1608:1728   */\n    tag_111:\n        /* \"#utility.yul\":1795:1796   */\n      0x00\n        /* \"#utility.yul\":1784:1793   */\n      dup7\n        /* \"#utility.yul\":1780:1797   */\n      add\n        /* \"#utility.yul\":1767:1798   */\n      calldataload\n        /* \"#utility.yul\":1825:1843   */\n      0xffffffffffffffff\n        /* \"#utility.yul\":1817:1823   */\n      dup2\n        /* \"#utility.yul\":1814:1844   */\n      gt\n        /* \"#utility.yul\":1811:1928   */\n      iszero\n      tag_113\n      jumpi\n        /* \"#utility.yul\":1847:1926   */\n      tag_114\n      tag_115\n      jump\t// in\n    tag_114:\n        /* \"#utility.yul\":1811:1928   */\n    tag_113:\n        /* \"#utility.yul\":1952:2015   */\n      tag_116\n        /* \"#utility.yul\":2007:2014   */\n      dup9\n        /* \"#utility.yul\":1998:2004   */\n      dup3\n        /* \"#utility.yul\":1987:1996   */\n      dup10\n        /* \"#utility.yul\":1983:2005   */\n      add\n        /* \"#utility.yul\":1952:2015   */\n      tag_95\n      jump\t// in\n    tag_116:\n        /* \"#utility.yul\":1942:2015   */\n      swap6\n      pop\n        /* \"#utility.yul\":1738:2025   */\n      pop\n        /* \"#utility.yul\":2092:2094   */\n      0x20\n        /* \"#utility.yul\":2081:2090   */\n      dup7\n        /* \"#utility.yul\":2077:2095   */\n      add\n        /* \"#utility.yul\":2064:2096   */\n      calldataload\n        /* \"#utility.yul\":2123:2141   */\n      0xffffffffffffffff\n        /* \"#utility.yul\":2115:2121   */\n      dup2\n        /* \"#utility.yul\":2112:2142   */\n      gt\n        /* \"#utility.yul\":2109:2226   */\n      iszero\n      tag_117\n      jumpi\n        /* \"#utility.yul\":2145:2224   */\n      tag_118\n      tag_115\n      jump\t// in\n    tag_118:\n        /* \"#utility.yul\":2109:2226   */\n    tag_117:\n        /* \"#utility.yul\":2250:2313   */\n      tag_119\n        /* \"#utility.yul\":2305:2312   */\n      dup9\n        /* \"#utility.yul\":2296:2302   */\n      dup3\n        /* \"#utility.yul\":2285:2294   */\n      dup10\n        /* \"#utility.yul\":2281:2303   */\n      add\n        /* \"#utility.yul\":2250:2313   */\n      tag_95\n      jump\t// in\n    tag_119:\n        /* \"#utility.yul\":2240:2313   */\n      swap5\n      pop\n        /* \"#utility.yul\":2035:2323   */\n      pop\n        /* \"#utility.yul\":2390:2392   */\n      0x40\n        /* \"#utility.yul\":2379:2388   */\n      dup7\n        /* \"#utility.yul\":2375:2393   */\n      add\n        /* \"#utility.yul\":2362:2394   */\n      calldataload\n        /* \"#utility.yul\":2421:2439   */\n      0xffffffffffffffff\n        /* \"#utility.yul\":2413:2419   */\n      dup2\n        /* \"#utility.yul\":2410:2440   */\n      gt\n        /* \"#utility.yul\":2407:2524   */\n      iszero\n      tag_120\n      jumpi\n        /* \"#utility.yul\":2443:2522   */\n      tag_121\n      tag_115\n      jump\t// in\n    tag_121:\n        /* \"#utility.yul\":2407:2524   */\n    tag_120:\n        /* \"#utility.yul\":2548:2611   */\n      tag_122\n        /* \"#utility.yul\":2603:2610   */\n      dup9\n        /* \"#utility.yul\":2594:2600   */\n      dup3\n        /* \"#utility.yul\":2583:2592   */\n      dup10\n        /* \"#utility.yul\":2579:2601   */\n      add\n        /* \"#utility.yul\":2548:2611   */\n      tag_95\n      jump\t// in\n    tag_122:\n        /* \"#utility.yul\":2538:2611   */\n      swap4\n      pop\n        /* \"#utility.yul\":2333:2621   */\n      pop\n        /* \"#utility.yul\":2688:2690   */\n      0x60\n        /* \"#utility.yul\":2677:2686   */\n      dup7\n        /* \"#utility.yul\":2673:2691   */\n      add\n        /* \"#utility.yul\":2660:2692   */\n      calldataload\n        /* \"#utility.yul\":2719:2737   */\n      0xffffffffffffffff\n        /* \"#utility.yul\":2711:2717   */\n      dup2\n        /* \"#utility.yul\":2708:2738   */\n      gt\n        /* \"#utility.yul\":2705:2822   */\n      iszero\n      tag_123\n      jumpi\n        /* \"#utility.yul\":2741:2820   */\n      tag_124\n      tag_115\n      jump\t// in\n    tag_124:\n        /* \"#utility.yul\":2705:2822   */\n    tag_123:\n        /* \"#utility.yul\":2846:2909   */\n      tag_125\n        /* \"#utility.yul\":2901:2908   */\n      dup9\n        /* \"#utility.yul\":2892:2898   */\n      dup3\n        /* \"#utility.yul\":2881:2890   */\n      dup10\n        /* \"#utility.yul\":2877:2899   */\n      add\n        /* \"#utility.yul\":2846:2909   */\n      tag_95\n      jump\t// in\n    tag_125:\n        /* \"#utility.yul\":2836:2909   */\n      swap3\n      pop\n        /* \"#utility.yul\":2631:2919   */\n      pop\n        /* \"#utility.yul\":2958:2961   */\n      0x80\n        /* \"#utility.yul\":2985:3038   */\n      tag_126\n        /* \"#utility.yul\":3030:3037   */\n      dup9\n        /* \"#utility.yul\":3021:3027   */\n      dup3\n        /* \"#utility.yul\":3010:3019   */\n      dup10\n        /* \"#utility.yul\":3006:3028   */\n      add\n        /* \"#utility.yul\":2985:3038   */\n      tag_101\n      jump\t// in\n    tag_126:\n        /* \"#utility.yul\":2975:3038   */\n      swap2\n      pop\n        /* \"#utility.yul\":2929:3048   */\n      pop\n        /* \"#utility.yul\":1424:3055   */\n      swap3\n      swap6\n      pop\n      swap3\n      swap6\n      swap1\n      swap4\n      pop\n      jump\t// out\n        /* \"#utility.yul\":3061:3390   */\n    tag_13:\n        /* \"#utility.yul\":3120:3126   */\n      0x00\n        /* \"#utility.yul\":3169:3171   */\n      0x20\n        /* \"#utility.yul\":3157:3166   */\n      dup3\n        /* \"#utility.yul\":3148:3155   */\n      dup5\n        /* \"#utility.yul\":3144:3167   */\n      sub\n        /* \"#utility.yul\":3140:3172   */\n      slt\n        /* \"#utility.yul\":3137:3256   */\n      iszero\n      tag_128\n      jumpi\n        /* \"#utility.yul\":3175:3254   */\n      tag_129\n      tag_108\n      jump\t// in\n    tag_129:\n        /* \"#utility.yul\":3137:3256   */\n    tag_128:\n        /* \"#utility.yul\":3295:3296   */\n      0x00\n        /* \"#utility.yul\":3320:3373   */\n      tag_130\n        /* \"#utility.yul\":3365:3372   */\n      dup5\n        /* \"#utility.yul\":3356:3362   */\n      dup3\n        /* \"#utility.yul\":3345:3354   */\n      dup6\n        /* \"#utility.yul\":3341:3363   */\n      add\n        /* \"#utility.yul\":3320:3373   */\n      tag_101\n      jump\t// in\n    tag_130:\n        /* \"#utility.yul\":3310:3373   */\n      swap2\n      pop\n        /* \"#utility.yul\":3266:3383   */\n      pop\n        /* \"#utility.yul\":3061:3390   */\n      swap3\n      swap2\n      pop\n      pop\n      jump\t// out\n        /* \"#utility.yul\":3396:3543   */\n    tag_131:\n        /* \"#utility.yul\":3491:3536   */\n      tag_133\n        /* \"#utility.yul\":3530:3535   */\n      dup2\n        /* \"#utility.yul\":3491:3536   */\n      tag_134\n      jump\t// in\n    tag_133:\n        /* \"#utility.yul\":3486:3489   */\n      dup3\n        /* \"#utility.yul\":3479:3537   */\n      mstore\n        /* \"#utility.yul\":3396:3543   */\n      pop\n      pop\n      jump\t// out\n        /* \"#utility.yul\":3549:3691   */\n    tag_135:\n        /* \"#utility.yul\":3652:3684   */\n      tag_137\n        /* \"#utility.yul\":3678:3683   */\n      dup2\n        /* \"#utility.yul\":3652:3684   */\n      tag_138\n      jump\t// in\n    tag_137:\n        /* \"#utility.yul\":3647:3650   */\n      dup3\n        /* \"#utility.yul\":3640:3685   */\n      mstore\n        /* \"#utility.yul\":3549:3691   */\n      pop\n      pop\n      jump\t// out\n        /* \"#utility.yul\":3697:3815   */\n    tag_139:\n        /* \"#utility.yul\":3784:3808   */\n      tag_141\n        /* \"#utility.yul\":3802:3807   */\n      dup2\n        /* \"#utility.yul\":3784:3808   */\n      tag_142\n      jump\t// in\n    tag_141:\n        /* \"#utility.yul\":3779:3782   */\n      dup3\n        /* \"#utility.yul\":3772:3809   */\n      mstore\n        /* \"#utility.yul\":3697:3815   */\n      pop\n      pop\n      jump\t// out\n        /* \"#utility.yul\":3821:4185   */\n    tag_143:\n        /* \"#utility.yul\":3909:3912   */\n      0x00\n        /* \"#utility.yul\":3937:3976   */\n      tag_145\n        /* \"#utility.yul\":3970:3975   */\n      dup3\n        /* \"#utility.yul\":3937:3976   */\n      tag_146\n      jump\t// in\n    tag_145:\n        /* \"#utility.yul\":3992:4063   */\n      tag_147\n        /* \"#utility.yul\":4056:4062   */\n      dup2\n        /* \"#utility.yul\":4051:4054   */\n      dup6\n        /* \"#utility.yul\":3992:4063   */\n      tag_148\n      jump\t// in\n    tag_147:\n        /* \"#utility.yul\":3985:4063   */\n      swap4\n      pop\n        /* \"#utility.yul\":4072:4124   */\n      tag_149\n        /* \"#utility.yul\":4117:4123   */\n      dup2\n        /* \"#utility.yul\":4112:4115   */\n      dup6\n        /* \"#utility.yul\":4105:4109   */\n      0x20\n        /* \"#utility.yul\":4098:4103   */\n      dup7\n        /* \"#utility.yul\":4094:4110   */\n      add\n        /* \"#utility.yul\":4072:4124   */\n      tag_150\n      jump\t// in\n    tag_149:\n        /* \"#utility.yul\":4149:4178   */\n      tag_151\n        /* \"#utility.yul\":4171:4177   */\n      dup2\n        /* \"#utility.yul\":4149:4178   */\n      tag_152\n      jump\t// in\n    tag_151:\n        /* \"#utility.yul\":4144:4147   */\n      dup5\n        /* \"#utility.yul\":4140:4179   */\n      add\n        /* \"#utility.yul\":4133:4179   */\n      swap2\n      pop\n        /* \"#utility.yul\":3913:4185   */\n      pop\n        /* \"#utility.yul\":3821:4185   */\n      swap3\n      swap2\n      pop\n      pop\n      jump\t// out\n        /* \"#utility.yul\":4191:4557   */\n    tag_153:\n        /* \"#utility.yul\":4333:4336   */\n      0x00\n        /* \"#utility.yul\":4354:4421   */\n      tag_155\n        /* \"#utility.yul\":4418:4420   */\n      0x10\n        /* \"#utility.yul\":4413:4416   */\n      dup4\n        /* \"#utility.yul\":4354:4421   */\n      tag_148\n      jump\t// in\n    tag_155:\n        /* \"#utility.yul\":4347:4421   */\n      swap2\n      pop\n        /* \"#utility.yul\":4430:4523   */\n      tag_156\n        /* \"#utility.yul\":4519:4522   */\n      dup3\n        /* \"#utility.yul\":4430:4523   */\n      tag_157\n      jump\t// in\n    tag_156:\n        /* \"#utility.yul\":4548:4550   */\n      0x20\n        /* \"#utility.yul\":4543:4546   */\n      dup3\n        /* \"#utility.yul\":4539:4551   */\n      add\n        /* \"#utility.yul\":4532:4551   */\n      swap1\n      pop\n        /* \"#utility.yul\":4191:4557   */\n      swap2\n      swap1\n      pop\n      jump\t// out\n        /* \"#utility.yul\":4563:4681   */\n    tag_158:\n        /* \"#utility.yul\":4650:4674   */\n      tag_160\n        /* \"#utility.yul\":4668:4673   */\n      dup2\n        /* \"#utility.yul\":4650:4674   */\n      tag_161\n      jump\t// in\n    tag_160:\n        /* \"#utility.yul\":4645:4648   */\n      dup3\n        /* \"#utility.yul\":4638:4675   */\n      mstore\n        /* \"#utility.yul\":4563:4681   */\n      pop\n      pop\n      jump\t// out\n        /* \"#utility.yul\":4687:5969   */\n    tag_25:\n        /* \"#utility.yul\":5044:5048   */\n      0x00\n        /* \"#utility.yul\":5082:5085   */\n      0xe0\n        /* \"#utility.yul\":5071:5080   */\n      dup3\n        /* \"#utility.yul\":5067:5086   */\n      add\n        /* \"#utility.yul\":5059:5086   */\n      swap1\n      pop\n        /* \"#utility.yul\":5096:5183   */\n      tag_163\n        /* \"#utility.yul\":5180:5181   */\n      0x00\n        /* \"#utility.yul\":5169:5178   */\n      dup4\n        /* \"#utility.yul\":5165:5182   */\n      add\n        /* \"#utility.yul\":5156:5162   */\n      dup11\n        /* \"#utility.yul\":5096:5183   */\n      tag_135\n      jump\t// in\n    tag_163:\n        /* \"#utility.yul\":5230:5239   */\n      dup2\n        /* \"#utility.yul\":5224:5228   */\n      dup2\n        /* \"#utility.yul\":5220:5240   */\n      sub\n        /* \"#utility.yul\":5215:5217   */\n      0x20\n        /* \"#utility.yul\":5204:5213   */\n      dup4\n        /* \"#utility.yul\":5200:5218   */\n      add\n        /* \"#utility.yul\":5193:5241   */\n      mstore\n        /* \"#utility.yul\":5258:5336   */\n      tag_164\n        /* \"#utility.yul\":5331:5335   */\n      dup2\n        /* \"#utility.yul\":5322:5328   */\n      dup10\n        /* \"#utility.yul\":5258:5336   */\n      tag_143\n      jump\t// in\n    tag_164:\n        /* \"#utility.yul\":5250:5336   */\n      swap1\n      pop\n        /* \"#utility.yul\":5383:5392   */\n      dup2\n        /* \"#utility.yul\":5377:5381   */\n      dup2\n        /* \"#utility.yul\":5373:5393   */\n      sub\n        /* \"#utility.yul\":5368:5370   */\n      0x40\n        /* \"#utility.yul\":5357:5366   */\n      dup4\n        /* \"#utility.yul\":5353:5371   */\n      add\n        /* \"#utility.yul\":5346:5394   */\n      mstore\n        /* \"#utility.yul\":5411:5489   */\n      tag_165\n        /* \"#utility.yul\":5484:5488   */\n      dup2\n        /* \"#utility.yul\":5475:5481   */\n      dup9\n        /* \"#utility.yul\":5411:5489   */\n      tag_143\n      jump\t// in\n    tag_165:\n        /* \"#utility.yul\":5403:5489   */\n      swap1\n      pop\n        /* \"#utility.yul\":5536:5545   */\n      dup2\n        /* \"#utility.yul\":5530:5534   */\n      dup2\n        /* \"#utility.yul\":5526:5546   */\n      sub\n        /* \"#utility.yul\":5521:5523   */\n      0x60\n        /* \"#utility.yul\":5510:5519   */\n      dup4\n        /* \"#utility.yul\":5506:5524   */\n      add\n        /* \"#utility.yul\":5499:5547   */\n      mstore\n        /* \"#utility.yul\":5564:5642   */\n      tag_166\n        /* \"#utility.yul\":5637:5641   */\n      dup2\n        /* \"#utility.yul\":5628:5634   */\n      dup8\n        /* \"#utility.yul\":5564:5642   */\n      tag_143\n      jump\t// in\n    tag_166:\n        /* \"#utility.yul\":5556:5642   */\n      swap1\n      pop\n        /* \"#utility.yul\":5690:5699   */\n      dup2\n        /* \"#utility.yul\":5684:5688   */\n      dup2\n        /* \"#utility.yul\":5680:5700   */\n      sub\n        /* \"#utility.yul\":5674:5677   */\n      0x80\n        /* \"#utility.yul\":5663:5672   */\n      dup4\n        /* \"#utility.yul\":5659:5678   */\n      add\n        /* \"#utility.yul\":5652:5701   */\n      mstore\n        /* \"#utility.yul\":5718:5796   */\n      tag_167\n        /* \"#utility.yul\":5791:5795   */\n      dup2\n        /* \"#utility.yul\":5782:5788   */\n      dup7\n        /* \"#utility.yul\":5718:5796   */\n      tag_143\n      jump\t// in\n    tag_167:\n        /* \"#utility.yul\":5710:5796   */\n      swap1\n      pop\n        /* \"#utility.yul\":5806:5879   */\n      tag_168\n        /* \"#utility.yul\":5874:5877   */\n      0xa0\n        /* \"#utility.yul\":5863:5872   */\n      dup4\n        /* \"#utility.yul\":5859:5878   */\n      add\n        /* \"#utility.yul\":5850:5856   */\n      dup6\n        /* \"#utility.yul\":5806:5879   */\n      tag_158\n      jump\t// in\n    tag_168:\n        /* \"#utility.yul\":5889:5962   */\n      tag_169\n        /* \"#utility.yul\":5957:5960   */\n      0xc0\n        /* \"#utility.yul\":5946:5955   */\n      dup4\n        /* \"#utility.yul\":5942:5961   */\n      add\n        /* \"#utility.yul\":5933:5939   */\n      dup5\n        /* \"#utility.yul\":5889:5962   */\n      tag_158\n      jump\t// in\n    tag_169:\n        /* \"#utility.yul\":4687:5969   */\n      swap9\n      swap8\n      pop\n      pop\n      pop\n      pop\n      pop\n      pop\n      pop\n      pop\n      jump\t// out\n        /* \"#utility.yul\":5975:6433   */\n    tag_29:\n        /* \"#utility.yul\":6132:6136   */\n      0x00\n        /* \"#utility.yul\":6170:6172   */\n      0x60\n        /* \"#utility.yul\":6159:6168   */\n      dup3\n        /* \"#utility.yul\":6155:6173   */\n      add\n        /* \"#utility.yul\":6147:6173   */\n      swap1\n      pop\n        /* \"#utility.yul\":6183:6254   */\n      tag_171\n        /* \"#utility.yul\":6251:6252   */\n      0x00\n        /* \"#utility.yul\":6240:6249   */\n      dup4\n        /* \"#utility.yul\":6236:6253   */\n      add\n        /* \"#utility.yul\":6227:6233   */\n      dup7\n        /* \"#utility.yul\":6183:6254   */\n      tag_139\n      jump\t// in\n    tag_171:\n        /* \"#utility.yul\":6264:6344   */\n      tag_172\n        /* \"#utility.yul\":6340:6342   */\n      0x20\n        /* \"#utility.yul\":6329:6338   */\n      dup4\n        /* \"#utility.yul\":6325:6343   */\n      add\n        /* \"#utility.yul\":6316:6322   */\n      dup6\n        /* \"#utility.yul\":6264:6344   */\n      tag_131\n      jump\t// in\n    tag_172:\n        /* \"#utility.yul\":6354:6426   */\n      tag_173\n        /* \"#utility.yul\":6422:6424   */\n      0x40\n        /* \"#utility.yul\":6411:6420   */\n      dup4\n        /* \"#utility.yul\":6407:6425   */\n      add\n        /* \"#utility.yul\":6398:6404   */\n      dup5\n        /* \"#utility.yul\":6354:6426   */\n      tag_158\n      jump\t// in\n    tag_173:\n        /* \"#utility.yul\":5975:6433   */\n      swap5\n      swap4\n      pop\n      pop\n      pop\n      pop\n      jump\t// out\n        /* \"#utility.yul\":6439:6858   */\n    tag_37:\n        /* \"#utility.yul\":6605:6609   */\n      0x00\n        /* \"#utility.yul\":6643:6645   */\n      0x20\n        /* \"#utility.yul\":6632:6641   */\n      dup3\n        /* \"#utility.yul\":6628:6646   */\n      add\n        /* \"#utility.yul\":6620:6646   */\n      swap1\n      pop\n        /* \"#utility.yul\":6692:6701   */\n      dup2\n        /* \"#utility.yul\":6686:6690   */\n      dup2\n        /* \"#utility.yul\":6682:6702   */\n      sub\n        /* \"#utility.yul\":6678:6679   */\n      0x00\n        /* \"#utility.yul\":6667:6676   */\n      dup4\n        /* \"#utility.yul\":6663:6680   */\n      add\n        /* \"#utility.yul\":6656:6703   */\n      mstore\n        /* \"#utility.yul\":6720:6851   */\n      tag_175\n        /* \"#utility.yul\":6846:6850   */\n      dup2\n        /* \"#utility.yul\":6720:6851   */\n      tag_153\n      jump\t// in\n    tag_175:\n        /* \"#utility.yul\":6712:6851   */\n      swap1\n      pop\n        /* \"#utility.yul\":6439:6858   */\n      swap2\n      swap1\n      pop\n      jump\t// out\n        /* \"#utility.yul\":6864:7086   */\n    tag_10:\n        /* \"#utility.yul\":6957:6961   */\n      0x00\n        /* \"#utility.yul\":6995:6997   */\n      0x20\n        /* \"#utility.yul\":6984:6993   */\n      dup3\n        /* \"#utility.yul\":6980:6998   */\n      add\n        /* \"#utility.yul\":6972:6998   */\n      swap1\n      pop\n        /* \"#utility.yul\":7008:7079   */\n      tag_177\n        /* \"#utility.yul\":7076:7077   */\n      0x00\n        /* \"#utility.yul\":7065:7074   */\n      dup4\n        /* \"#utility.yul\":7061:7078   */\n      add\n        /* \"#utility.yul\":7052:7058   */\n      dup5\n        /* \"#utility.yul\":7008:7079   */\n      tag_158\n      jump\t// in\n    tag_177:\n        /* \"#utility.yul\":6864:7086   */\n      swap3\n      swap2\n      pop\n      pop\n      jump\t// out\n        /* \"#utility.yul\":7092:7221   */\n    tag_85:\n        /* \"#utility.yul\":7126:7132   */\n      0x00\n        /* \"#utility.yul\":7153:7173   */\n      tag_179\n      tag_180\n      jump\t// in\n    tag_179:\n        /* \"#utility.yul\":7143:7173   */\n      swap1\n      pop\n        /* \"#utility.yul\":7182:7215   */\n      tag_181\n        /* \"#utility.yul\":7210:7214   */\n      dup3\n        /* \"#utility.yul\":7202:7208   */\n      dup3\n        /* \"#utility.yul\":7182:7215   */\n      tag_182\n      jump\t// in\n    tag_181:\n        /* \"#utility.yul\":7092:7221   */\n      swap2\n      swap1\n      pop\n      jump\t// out\n        /* \"#utility.yul\":7227:7302   */\n    tag_180:\n        /* \"#utility.yul\":7260:7266   */\n      0x00\n        /* \"#utility.yul\":7293:7295   */\n      0x40\n        /* \"#utility.yul\":7287:7296   */\n      mload\n        /* \"#utility.yul\":7277:7296   */\n      swap1\n      pop\n        /* \"#utility.yul\":7227:7302   */\n      swap1\n      jump\t// out\n        /* \"#utility.yul\":7308:7616   */\n    tag_84:\n        /* \"#utility.yul\":7370:7374   */\n      0x00\n        /* \"#utility.yul\":7460:7478   */\n      0xffffffffffffffff\n        /* \"#utility.yul\":7452:7458   */\n      dup3\n        /* \"#utility.yul\":7449:7479   */\n      gt\n        /* \"#utility.yul\":7446:7502   */\n      iszero\n      tag_185\n      jumpi\n        /* \"#utility.yul\":7482:7500   */\n      tag_186\n      tag_187\n      jump\t// in\n    tag_186:\n        /* \"#utility.yul\":7446:7502   */\n    tag_185:\n        /* \"#utility.yul\":7520:7549   */\n      tag_188\n        /* \"#utility.yul\":7542:7548   */\n      dup3\n        /* \"#utility.yul\":7520:7549   */\n      tag_152\n      jump\t// in\n    tag_188:\n        /* \"#utility.yul\":7512:7549   */\n      swap1\n      pop\n        /* \"#utility.yul\":7604:7608   */\n      0x20\n        /* \"#utility.yul\":7598:7602   */\n      dup2\n        /* \"#utility.yul\":7594:7609   */\n      add\n        /* \"#utility.yul\":7586:7609   */\n      swap1\n      pop\n        /* \"#utility.yul\":7308:7616   */\n      swap2\n      swap1\n      pop\n      jump\t// out\n        /* \"#utility.yul\":7622:7721   */\n    tag_146:\n        /* \"#utility.yul\":7674:7680   */\n      0x00\n        /* \"#utility.yul\":7708:7713   */\n      dup2\n        /* \"#utility.yul\":7702:7714   */\n      mload\n        /* \"#utility.yul\":7692:7714   */\n      swap1\n      pop\n        /* \"#utility.yul\":7622:7721   */\n      swap2\n      swap1\n      pop\n      jump\t// out\n        /* \"#utility.yul\":7727:7896   */\n    tag_148:\n        /* \"#utility.yul\":7811:7822   */\n      0x00\n        /* \"#utility.yul\":7845:7851   */\n      dup3\n        /* \"#utility.yul\":7840:7843   */\n      dup3\n        /* \"#utility.yul\":7833:7852   */\n      mstore\n        /* \"#utility.yul\":7885:7889   */\n      0x20\n        /* \"#utility.yul\":7880:7883   */\n      dup3\n        /* \"#utility.yul\":7876:7890   */\n      add\n        /* \"#utility.yul\":7861:7890   */\n      swap1\n      pop\n        /* \"#utility.yul\":7727:7896   */\n      swap3\n      swap2\n      pop\n      pop\n      jump\t// out\n        /* \"#utility.yul\":7902:7998   */\n    tag_142:\n        /* \"#utility.yul\":7939:7946   */\n      0x00\n        /* \"#utility.yul\":7968:7992   */\n      tag_192\n        /* \"#utility.yul\":7986:7991   */\n      dup3\n        /* \"#utility.yul\":7968:7992   */\n      tag_193\n      jump\t// in\n    tag_192:\n        /* \"#utility.yul\":7957:7992   */\n      swap1\n      pop\n        /* \"#utility.yul\":7902:7998   */\n      swap2\n      swap1\n      pop\n      jump\t// out\n        /* \"#utility.yul\":8004:8108   */\n    tag_138:\n        /* \"#utility.yul\":8049:8056   */\n      0x00\n        /* \"#utility.yul\":8078:8102   */\n      tag_195\n        /* \"#utility.yul\":8096:8101   */\n      dup3\n        /* \"#utility.yul\":8078:8102   */\n      tag_193\n      jump\t// in\n    tag_195:\n        /* \"#utility.yul\":8067:8102   */\n      swap1\n      pop\n        /* \"#utility.yul\":8004:8108   */\n      swap2\n      swap1\n      pop\n      jump\t// out\n        /* \"#utility.yul\":8114:8204   */\n    tag_196:\n        /* \"#utility.yul\":8148:8155   */\n      0x00\n        /* \"#utility.yul\":8191:8196   */\n      dup2\n        /* \"#utility.yul\":8184:8197   */\n      iszero\n        /* \"#utility.yul\":8177:8198   */\n      iszero\n        /* \"#utility.yul\":8166:8198   */\n      swap1\n      pop\n        /* \"#utility.yul\":8114:8204   */\n      swap2\n      swap1\n      pop\n      jump\t// out\n        /* \"#utility.yul\":8210:8336   */\n    tag_193:\n        /* \"#utility.yul\":8247:8254   */\n      0x00\n        /* \"#utility.yul\":8287:8329   */\n      0xffffffffffffffffffffffffffffffffffffffff\n        /* \"#utility.yul\":8280:8285   */\n      dup3\n        /* \"#utility.yul\":8276:8330   */\n      and\n        /* \"#utility.yul\":8265:8330   */\n      swap1\n      pop\n        /* \"#utility.yul\":8210:8336   */\n      swap2\n      swap1\n      pop\n      jump\t// out\n        /* \"#utility.yul\":8342:8419   */\n    tag_161:\n        /* \"#utility.yul\":8379:8386   */\n      0x00\n        /* \"#utility.yul\":8408:8413   */\n      dup2\n        /* \"#utility.yul\":8397:8413   */\n      swap1\n      pop\n        /* \"#utility.yul\":8342:8419   */\n      swap2\n      swap1\n      pop\n      jump\t// out\n        /* \"#utility.yul\":8425:8559   */\n    tag_134:\n        /* \"#utility.yul\":8483:8492   */\n      0x00\n        /* \"#utility.yul\":8516:8553   */\n      tag_201\n        /* \"#utility.yul\":8547:8552   */\n      dup3\n        /* \"#utility.yul\":8516:8553   */\n      tag_202\n      jump\t// in\n    tag_201:\n        /* \"#utility.yul\":8503:8553   */\n      swap1\n      pop\n        /* \"#utility.yul\":8425:8559   */\n      swap2\n      swap1\n      pop\n      jump\t// out\n        /* \"#utility.yul\":8565:8691   */\n    tag_202:\n        /* \"#utility.yul\":8615:8624   */\n      0x00\n        /* \"#utility.yul\":8648:8685   */\n      tag_204\n        /* \"#utility.yul\":8679:8684   */\n      dup3\n        /* \"#utility.yul\":8648:8685   */\n      tag_205\n      jump\t// in\n    tag_204:\n        /* \"#utility.yul\":8635:8685   */\n      swap1\n      pop\n        /* \"#utility.yul\":8565:8691   */\n      swap2\n      swap1\n      pop\n      jump\t// out\n        /* \"#utility.yul\":8697:8810   */\n    tag_205:\n        /* \"#utility.yul\":8747:8756   */\n      0x00\n        /* \"#utility.yul\":8780:8804   */\n      tag_207\n        /* \"#utility.yul\":8798:8803   */\n      dup3\n        /* \"#utility.yul\":8780:8804   */\n      tag_193\n      jump\t// in\n    tag_207:\n        /* \"#utility.yul\":8767:8804   */\n      swap1\n      pop\n        /* \"#utility.yul\":8697:8810   */\n      swap2\n      swap1\n      pop\n      jump\t// out\n        /* \"#utility.yul\":8816:8970   */\n    tag_90:\n        /* \"#utility.yul\":8900:8906   */\n      dup3\n        /* \"#utility.yul\":8895:8898   */\n      dup2\n        /* \"#utility.yul\":8890:8893   */\n      dup4\n        /* \"#utility.yul\":8877:8907   */\n      calldatacopy\n        /* \"#utility.yul\":8962:8963   */\n      0x00\n        /* \"#utility.yul\":8953:8959   */\n      dup4\n        /* \"#utility.yul\":8948:8951   */\n      dup4\n        /* \"#utility.yul\":8944:8960   */\n      add\n        /* \"#utility.yul\":8937:8964   */\n      mstore\n        /* \"#utility.yul\":8816:8970   */\n      pop\n      pop\n      pop\n      jump\t// out\n        /* \"#utility.yul\":8976:9283   */\n    tag_150:\n        /* \"#utility.yul\":9044:9045   */\n      0x00\n        /* \"#utility.yul\":9054:9167   */\n    tag_210:\n        /* \"#utility.yul\":9068:9074   */\n      dup4\n        /* \"#utility.yul\":9065:9066   */\n      dup2\n        /* \"#utility.yul\":9062:9075   */\n      lt\n        /* \"#utility.yul\":9054:9167   */\n      iszero\n      tag_212\n      jumpi\n        /* \"#utility.yul\":9153:9154   */\n      dup1\n        /* \"#utility.yul\":9148:9151   */\n      dup3\n        /* \"#utility.yul\":9144:9155   */\n      add\n        /* \"#utility.yul\":9138:9156   */\n      mload\n        /* \"#utility.yul\":9134:9135   */\n      dup2\n        /* \"#utility.yul\":9129:9132   */\n      dup5\n        /* \"#utility.yul\":9125:9136   */\n      add\n        /* \"#utility.yul\":9118:9157   */\n      mstore\n        /* \"#utility.yul\":9090:9092   */\n      0x20\n        /* \"#utility.yul\":9087:9088   */\n      dup2\n        /* \"#utility.yul\":9083:9093   */\n      add\n        /* \"#utility.yul\":9078:9093   */\n      swap1\n      pop\n        /* \"#utility.yul\":9054:9167   */\n      jump(tag_210)\n    tag_212:\n        /* \"#utility.yul\":9185:9191   */\n      dup4\n        /* \"#utility.yul\":9182:9183   */\n      dup2\n        /* \"#utility.yul\":9179:9192   */\n      gt\n        /* \"#utility.yul\":9176:9277   */\n      iszero\n      tag_213\n      jumpi\n        /* \"#utility.yul\":9265:9266   */\n      0x00\n        /* \"#utility.yul\":9256:9262   */\n      dup5\n        /* \"#utility.yul\":9251:9254   */\n      dup5\n        /* \"#utility.yul\":9247:9263   */\n      add\n        /* \"#utility.yul\":9240:9267   */\n      mstore\n        /* \"#utility.yul\":9176:9277   */\n    tag_213:\n        /* \"#utility.yul\":9025:9283   */\n      pop\n        /* \"#utility.yul\":8976:9283   */\n      pop\n      pop\n      pop\n      jump\t// out\n        /* \"#utility.yul\":9289:9609   */\n    tag_49:\n        /* \"#utility.yul\":9333:9339   */\n      0x00\n        /* \"#utility.yul\":9370:9371   */\n      0x02\n        /* \"#utility.yul\":9364:9368   */\n      dup3\n        /* \"#utility.yul\":9360:9372   */\n      div\n        /* \"#utility.yul\":9350:9372   */\n      swap1\n      pop\n        /* \"#utility.yul\":9417:9418   */\n      0x01\n        /* \"#utility.yul\":9411:9415   */\n      dup3\n        /* \"#utility.yul\":9407:9419   */\n      and\n        /* \"#utility.yul\":9438:9456   */\n      dup1\n        /* \"#utility.yul\":9428:9509   */\n      tag_215\n      jumpi\n        /* \"#utility.yul\":9494:9498   */\n      0x7f\n        /* \"#utility.yul\":9486:9492   */\n      dup3\n        /* \"#utility.yul\":9482:9499   */\n      and\n        /* \"#utility.yul\":9472:9499   */\n      swap2\n      pop\n        /* \"#utility.yul\":9428:9509   */\n    tag_215:\n        /* \"#utility.yul\":9556:9558   */\n      0x20\n        /* \"#utility.yul\":9548:9554   */\n      dup3\n        /* \"#utility.yul\":9545:9559   */\n      lt\n        /* \"#utility.yul\":9525:9543   */\n      dup2\n        /* \"#utility.yul\":9522:9560   */\n      eq\n        /* \"#utility.yul\":9519:9603   */\n      iszero\n      tag_216\n      jumpi\n        /* \"#utility.yul\":9575:9593   */\n      tag_217\n      tag_218\n      jump\t// in\n    tag_217:\n        /* \"#utility.yul\":9519:9603   */\n    tag_216:\n        /* \"#utility.yul\":9340:9609   */\n      pop\n        /* \"#utility.yul\":9289:9609   */\n      swap2\n      swap1\n      pop\n      jump\t// out\n        /* \"#utility.yul\":9615:9896   */\n    tag_182:\n        /* \"#utility.yul\":9698:9725   */\n      tag_220\n        /* \"#utility.yul\":9720:9724   */\n      dup3\n        /* \"#utility.yul\":9698:9725   */\n      tag_152\n      jump\t// in\n    tag_220:\n        /* \"#utility.yul\":9690:9696   */\n      dup2\n        /* \"#utility.yul\":9686:9726   */\n      add\n        /* \"#utility.yul\":9828:9834   */\n      dup2\n        /* \"#utility.yul\":9816:9826   */\n      dup2\n        /* \"#utility.yul\":9813:9835   */\n      lt\n        /* \"#utility.yul\":9792:9810   */\n      0xffffffffffffffff\n        /* \"#utility.yul\":9780:9790   */\n      dup3\n        /* \"#utility.yul\":9777:9811   */\n      gt\n        /* \"#utility.yul\":9774:9836   */\n      or\n        /* \"#utility.yul\":9771:9859   */\n      iszero\n      tag_221\n      jumpi\n        /* \"#utility.yul\":9839:9857   */\n      tag_222\n      tag_187\n      jump\t// in\n    tag_222:\n        /* \"#utility.yul\":9771:9859   */\n    tag_221:\n        /* \"#utility.yul\":9879:9889   */\n      dup1\n        /* \"#utility.yul\":9875:9877   */\n      0x40\n        /* \"#utility.yul\":9868:9890   */\n      mstore\n        /* \"#utility.yul\":9658:9896   */\n      pop\n        /* \"#utility.yul\":9615:9896   */\n      pop\n      pop\n      jump\t// out\n        /* \"#utility.yul\":9902:10135   */\n    tag_39:\n        /* \"#utility.yul\":9941:9944   */\n      0x00\n        /* \"#utility.yul\":9964:9988   */\n      tag_224\n        /* \"#utility.yul\":9982:9987   */\n      dup3\n        /* \"#utility.yul\":9964:9988   */\n      tag_161\n      jump\t// in\n    tag_224:\n        /* \"#utility.yul\":9955:9988   */\n      swap2\n      pop\n        /* \"#utility.yul\":10010:10076   */\n      0xffffffffffffffffffffffffffffffffffffffffffffffffffffffffffffffff\n        /* \"#utility.yul\":10003:10008   */\n      dup3\n        /* \"#utility.yul\":10000:10077   */\n      eq\n        /* \"#utility.yul\":9997:10100   */\n      iszero\n      tag_225\n      jumpi\n        /* \"#utility.yul\":10080:10098   */\n      tag_226\n      tag_227\n      jump\t// in\n    tag_226:\n        /* \"#utility.yul\":9997:10100   */\n    tag_225:\n        /* \"#utility.yul\":10127:10128   */\n      0x01\n        /* \"#utility.yul\":10120:10125   */\n      dup3\n        /* \"#utility.yul\":10116:10129   */\n      add\n        /* \"#utility.yul\":10109:10129   */\n      swap1\n      pop\n        /* \"#utility.yul\":9902:10135   */\n      swap2\n      swap1\n      pop\n      jump\t// out\n        /* \"#utility.yul\":10141:10321   */\n    tag_227:\n        /* \"#utility.yul\":10189:10266   */\n      0x4e487b7100000000000000000000000000000000000000000000000000000000\n        /* \"#utility.yul\":10186:10187   */\n      0x00\n        /* \"#utility.yul\":10179:10267   */\n      mstore\n        /* \"#utility.yul\":10286:10290   */\n      0x11\n        /* \"#utility.yul\":10283:10284   */\n      0x04\n        /* \"#utility.yul\":10276:10291   */\n      mstore\n        /* \"#utility.yul\":10310:10314   */\n      0x24\n        /* \"#utility.yul\":10307:10308   */\n      0x00\n        /* \"#utility.yul\":10300:10315   */\n      revert\n        /* \"#utility.yul\":10327:10507   */\n    tag_218:\n        /* \"#utility.yul\":10375:10452   */\n      0x4e487b7100000000000000000000000000000000000000000000000000000000\n        /* \"#utility.yul\":10372:10373   */\n      0x00\n        /* \"#utility.yul\":10365:10453   */\n      mstore\n        /* \"#utility.yul\":10472:10476   */\n      0x22\n        /* \"#utility.yul\":10469:10470   */\n      0x04\n        /* \"#utility.yul\":10462:10477   */\n      mstore\n        /* \"#utility.yul\":10496:10500   */\n      0x24\n        /* \"#utility.yul\":10493:10494   */\n      0x00\n        /* \"#utility.yul\":10486:10501   */\n      revert\n        /* \"#utility.yul\":10513:10693   */\n    tag_187:\n        /* \"#utility.yul\":10561:10638   */\n      0x4e487b7100000000000000000000000000000000000000000000000000000000\n        /* \"#utility.yul\":10558:10559   */\n      0x00\n        /* \"#utility.yul\":10551:10639   */\n      mstore\n        /* \"#utility.yul\":10658:10662   */\n      0x41\n        /* \"#utility.yul\":10655:10656   */\n      0x04\n        /* \"#utility.yul\":10648:10663   */\n      mstore\n        /* \"#utility.yul\":10682:10686   */\n      0x24\n        /* \"#utility.yul\":10679:10680   */\n      0x00\n        /* \"#utility.yul\":10672:10687   */\n      revert\n        /* \"#utility.yul\":10699:10816   */\n    tag_99:\n        /* \"#utility.yul\":10808:10809   */\n      0x00\n        /* \"#utility.yul\":10805:10806   */\n      dup1\n        /* \"#utility.yul\":10798:10810   */\n      revert\n        /* \"#utility.yul\":10822:10939   */\n    tag_88:\n        /* \"#utility.yul\":10931:10932   */\n      0x00\n        /* \"#utility.yul\":10928:10929   */\n      dup1\n        /* \"#utility.yul\":10921:10933   */\n      revert\n        /* \"#utility.yul\":10945:11062   */\n    tag_115:\n        /* \"#utility.yul\":11054:11055   */\n      0x00\n        /* \"#utility.yul\":11051:11052   */\n      dup1\n        /* \"#utility.yul\":11044:11056   */\n      revert\n        /* \"#utility.yul\":11068:11185   */\n    tag_108:\n        /* \"#utility.yul\":11177:11178   */\n      0x00\n        /* \"#utility.yul\":11174:11175   */\n      dup1\n        /* \"#utility.yul\":11167:11179   */\n      revert\n        /* \"#utility.yul\":11191:11293   */\n    tag_152:\n        /* \"#utility.yul\":11232:11238   */\n      0x00\n        /* \"#utility.yul\":11283:11285   */\n      0x1f\n        /* \"#utility.yul\":11279:11286   */\n      not\n        /* \"#utility.yul\":11274:11276   */\n      0x1f\n        /* \"#utility.yul\":11267:11272   */\n      dup4\n        /* \"#utility.yul\":11263:11277   */\n      add\n        /* \"#utility.yul\":11259:11287   */\n      and\n        /* \"#utility.yul\":11249:11287   */\n      swap1\n      pop\n        /* \"#utility.yul\":11191:11293   */\n      swap2\n      swap1\n      pop\n      jump\t// out\n        /* \"#utility.yul\":11299:11465   */\n    tag_157:\n        /* \"#utility.yul\":11439:11457   */\n      0x5472616e73666572206661696c65642e00000000000000000000000000000000\n        /* \"#utility.yul\":11435:11436   */\n      0x00\n        /* \"#utility.yul\":11427:11433   */\n      dup3\n        /* \"#utility.yul\":11423:11437   */\n      add\n        /* \"#utility.yul\":11416:11458   */\n      mstore\n        /* \"#utility.yul\":11299:11465   */\n      pop\n      jump\t// out\n        /* \"#utility.yul\":11471:11587   */\n    tag_94:\n        /* \"#utility.yul\":11541:11562   */\n      tag_238\n        /* \"#utility.yul\":11556:11561   */\n      dup2\n        /* \"#utility.yul\":11541:11562   */\n      tag_196\n      jump\t// in\n    tag_238:\n        /* \"#utility.yul\":11534:11539   */\n      dup2\n        /* \"#utility.yul\":11531:11563   */\n      eq\n        /* \"#utility.yul\":11521:11581   */\n      tag_239\n      jumpi\n        /* \"#utility.yul\":11577:11578   */\n      0x00\n        /* \"#utility.yul\":11574:11575   */\n      dup1\n        /* \"#utility.yul\":11567:11579   */\n      revert\n        /* \"#utility.yul\":11521:11581   */\n    tag_239:\n        /* \"#utility.yul\":11471:11587   */\n      pop\n      jump\t// out\n        /* \"#utility.yul\":11593:11715   */\n    tag_104:\n        /* \"#utility.yul\":11666:11690   */\n      tag_241\n        /* \"#utility.yul\":11684:11689   */\n      dup2\n        /* \"#utility.yul\":11666:11690   */\n      tag_161\n      jump\t// in\n    tag_241:\n        /* \"#utility.yul\":11659:11664   */\n      dup2\n        /* \"#utility.yul\":11656:11691   */\n      eq\n        /* \"#utility.yul\":11646:11709   */\n      tag_242\n      jumpi\n        /* \"#utility.yul\":11705:11706   */\n      0x00\n        /* \"#utility.yul\":11702:11703   */\n      dup1\n        /* \"#utility.yul\":11695:11707   */\n      revert\n        /* \"#utility.yul\":11646:11709   */\n    tag_242:\n        /* \"#utility.yul\":11593:11715   */\n      pop\n      jump\t// out\n\n    auxdata: 0xa26469706673582212206d91a9ac8dbf10f4f75ba90311e1f1a3ed9527c3d3acc01354007c84d368312564736f6c63430008070033\n}\n",
				"bytecode": {
					"linkReferences": {},
					"object": "60806040526000805573874069fa1eb16d44d622f2e0ca25eea172369bc1600160006101000a81548173ffffffffffffffffffffffffffffffffffffffff021916908373ffffffffffffffffffffffffffffffffffffffff16021790555034801561006957600080fd5b50610e12806100796000396000f3fe60806040526004361061003f5760003560e01c80631155dfe5146100445780638642269e1461006f5780638da8f27b1461008b578063fffa7e2e146100b4575b600080fd5b34801561005057600080fd5b506100596100f7565b6040516100669190610ac8565b60405180910390f35b61008960048036038101906100849190610921565b610100565b005b34801561009757600080fd5b506100b260048036038101906100ad9190610836565b61026b565b005b3480156100c057600080fd5b506100db60048036038101906100d69190610921565b6103bb565b6040516100ee97969594939291906109e6565b60405180910390f35b60008054905090565b600160009054906101000a900473ffffffffffffffffffffffffffffffffffffffff1673ffffffffffffffffffffffffffffffffffffffff166323b872dd336002600085815260200190815260200160002060000160009054906101000a900473ffffffffffffffffffffffffffffffffffffffff1660026000868152602001908152602001600020600501546040518463ffffffff1660e01b81526004016101ab93929190610a71565b602060405180830381600087803b1580156101c557600080fd5b505af11580156101d9573d6000803e3d6000fd5b505050506040513d601f19601f820116820180604052508101906101fd9190610809565b61023c576040517f08c379a000000000000000000000000000000000000000000000000000000000815260040161023390610aa8565b60405180910390fd5b60026000828152602001908152602001600020600601600081548092919061026390610c8a565b919050555050565b60006040518060e001604052803373ffffffffffffffffffffffffffffffffffffffff16815260200187815260200186815260200185815260200184815260200183815260200182815250600260008054815260200190815260200160002060008201518160000160006101000a81548173ffffffffffffffffffffffffffffffffffffffff021916908373ffffffffffffffffffffffffffffffffffffffff160217905550602082015181600101908051906020019061032d9291906106cc565b50604082015181600201908051906020019061034a9291906106cc565b5060608201518160030190805190602001906103679291906106cc565b5060808201518160040190805190602001906103849291906106cc565b5060a0820151816005015560c082015181600601559050506000808154809291906103ae90610c8a565b9190505550505050505050565b60006060806060806000806002600089815260200190815260200160002060000160009054906101000a900473ffffffffffffffffffffffffffffffffffffffff16600260008a8152602001908152602001600020600101600260008b8152602001908152602001600020600201600260008c8152602001908152602001600020600301600260008d8152602001908152602001600020600401600260008e815260200190815260200160002060050154600260008f81526020019081526020016000206006015485805461048f90610c27565b80601f01602080910402602001604051908101604052809291908181526020018280546104bb90610c27565b80156105085780601f106104dd57610100808354040283529160200191610508565b820191906000526020600020905b8154815290600101906020018083116104eb57829003601f168201915b5050505050955084805461051b90610c27565b80601f016020809104026020016040519081016040528092919081815260200182805461054790610c27565b80156105945780601f1061056957610100808354040283529160200191610594565b820191906000526020600020905b81548152906001019060200180831161057757829003601f168201915b505050505094508380546105a790610c27565b80601f01602080910402602001604051908101604052809291908181526020018280546105d390610c27565b80156106205780601f106105f557610100808354040283529160200191610620565b820191906000526020600020905b81548152906001019060200180831161060357829003601f168201915b5050505050935082805461063390610c27565b80601f016020809104026020016040519081016040528092919081815260200182805461065f90610c27565b80156106ac5780601f10610681576101008083540402835291602001916106ac565b820191906000526020600020905b81548152906001019060200180831161068f57829003601f168201915b505050505092509650965096509650965096509650919395979092949650565b8280546106d890610c27565b90600052602060002090601f0160209004810192826106fa5760008555610741565b82601f1061071357805160ff1916838001178555610741565b82800160010185558215610741579182015b82811115610740578251825591602001919060010190610725565b5b50905061074e9190610752565b5090565b5b8082111561076b576000816000905550600101610753565b5090565b600061078261077d84610b08565b610ae3565b90508281526020810184848401111561079e5761079d610d65565b5b6107a9848285610be5565b509392505050565b6000815190506107c081610dae565b92915050565b600082601f8301126107db576107da610d60565b5b81356107eb84826020860161076f565b91505092915050565b60008135905061080381610dc5565b92915050565b60006020828403121561081f5761081e610d6f565b5b600061082d848285016107b1565b91505092915050565b600080600080600060a0868803121561085257610851610d6f565b5b600086013567ffffffffffffffff8111156108705761086f610d6a565b5b61087c888289016107c6565b955050602086013567ffffffffffffffff81111561089d5761089c610d6a565b5b6108a9888289016107c6565b945050604086013567ffffffffffffffff8111156108ca576108c9610d6a565b5b6108d6888289016107c6565b935050606086013567ffffffffffffffff8111156108f7576108f6610d6a565b5b610903888289016107c6565b9250506080610914888289016107f4565b9150509295509295909350565b60006020828403121561093757610936610d6f565b5b6000610945848285016107f4565b91505092915050565b61095781610baf565b82525050565b61096681610b67565b82525050565b61097581610b55565b82525050565b600061098682610b39565b6109908185610b44565b93506109a0818560208601610bf4565b6109a981610d74565b840191505092915050565b60006109c1601083610b44565b91506109cc82610d85565b602082019050919050565b6109e081610ba5565b82525050565b600060e0820190506109fb600083018a61095d565b8181036020830152610a0d818961097b565b90508181036040830152610a21818861097b565b90508181036060830152610a35818761097b565b90508181036080830152610a49818661097b565b9050610a5860a08301856109d7565b610a6560c08301846109d7565b98975050505050505050565b6000606082019050610a86600083018661096c565b610a93602083018561094e565b610aa060408301846109d7565b949350505050565b60006020820190508181036000830152610ac1816109b4565b9050919050565b6000602082019050610add60008301846109d7565b92915050565b6000610aed610afe565b9050610af98282610c59565b919050565b6000604051905090565b600067ffffffffffffffff821115610b2357610b22610d31565b5b610b2c82610d74565b9050602081019050919050565b600081519050919050565b600082825260208201905092915050565b6000610b6082610b85565b9050919050565b6000610b7282610b85565b9050919050565b60008115159050919050565b600073ffffffffffffffffffffffffffffffffffffffff82169050919050565b6000819050919050565b6000610bba82610bc1565b9050919050565b6000610bcc82610bd3565b9050919050565b6000610bde82610b85565b9050919050565b82818337600083830152505050565b60005b83811015610c12578082015181840152602081019050610bf7565b83811115610c21576000848401525b50505050565b60006002820490506001821680610c3f57607f821691505b60208210811415610c5357610c52610d02565b5b50919050565b610c6282610d74565b810181811067ffffffffffffffff82111715610c8157610c80610d31565b5b80604052505050565b6000610c9582610ba5565b91507fffffffffffffffffffffffffffffffffffffffffffffffffffffffffffffffff821415610cc857610cc7610cd3565b5b600182019050919050565b7f4e487b7100000000000000000000000000000000000000000000000000000000600052601160045260246000fd5b7f4e487b7100000000000000000000000000000000000000000000000000000000600052602260045260246000fd5b7f4e487b7100000000000000000000000000000000000000000000000000000000600052604160045260246000fd5b600080fd5b600080fd5b600080fd5b600080fd5b6000601f19601f8301169050919050565b7f5472616e73666572206661696c65642e00000000000000000000000000000000600082015250565b610db781610b79565b8114610dc257600080fd5b50565b610dce81610ba5565b8114610dd957600080fd5b5056fea26469706673582212206d91a9ac8dbf10f4f75ba90311e1f1a3ed9527c3d3acc01354007c84d368312564736f6c63430008070033",
					"opcodes": "PUSH1 0x80 PUSH1 0x40 MSTORE PUSH1 0x0 DUP1 SSTORE PUSH20 0x874069FA1EB16D44D622F2E0CA25EEA172369BC1 PUSH1 0x1 PUSH1 0x0 PUSH2 0x100 EXP DUP2 SLOAD DUP2 PUSH20 0xFFFFFFFFFFFFFFFFFFFFFFFFFFFFFFFFFFFFFFFF MUL NOT AND SWAP1 DUP4 PUSH20 0xFFFFFFFFFFFFFFFFFFFFFFFFFFFFFFFFFFFFFFFF AND MUL OR SWAP1 SSTORE POP CALLVALUE DUP1 ISZERO PUSH2 0x69 JUMPI PUSH1 0x0 DUP1 REVERT JUMPDEST POP PUSH2 0xE12 DUP1 PUSH2 0x79 PUSH1 0x0 CODECOPY PUSH1 0x0 RETURN INVALID PUSH1 0x80 PUSH1 0x40 MSTORE PUSH1 0x4 CALLDATASIZE LT PUSH2 0x3F JUMPI PUSH1 0x0 CALLDATALOAD PUSH1 0xE0 SHR DUP1 PUSH4 0x1155DFE5 EQ PUSH2 0x44 JUMPI DUP1 PUSH4 0x8642269E EQ PUSH2 0x6F JUMPI DUP1 PUSH4 0x8DA8F27B EQ PUSH2 0x8B JUMPI DUP1 PUSH4 0xFFFA7E2E EQ PUSH2 0xB4 JUMPI JUMPDEST PUSH1 0x0 DUP1 REVERT JUMPDEST CALLVALUE DUP1 ISZERO PUSH2 0x50 JUMPI PUSH1 0x0 DUP1 REVERT JUMPDEST POP PUSH2 0x59 PUSH2 0xF7 JUMP JUMPDEST PUSH1 0x40 MLOAD PUSH2 0x66 SWAP2 SWAP1 PUSH2 0xAC8 JUMP JUMPDEST PUSH1 0x40 MLOAD DUP1 SWAP2 SUB SWAP1 RETURN JUMPDEST PUSH2 0x89 PUSH1 0x4 DUP1 CALLDATASIZE SUB DUP2 ADD SWAP1 PUSH2 0x84 SWAP2 SWAP1 PUSH2 0x921 JUMP JUMPDEST PUSH2 0x100 JUMP JUMPDEST STOP JUMPDEST CALLVALUE DUP1 ISZERO PUSH2 0x97 JUMPI PUSH1 0x0 DUP1 REVERT JUMPDEST POP PUSH2 0xB2 PUSH1 0x4 DUP1 CALLDATASIZE SUB DUP2 ADD SWAP1 PUSH2 0xAD SWAP2 SWAP1 PUSH2 0x836 JUMP JUMPDEST PUSH2 0x26B JUMP JUMPDEST STOP JUMPDEST CALLVALUE DUP1 ISZERO PUSH2 0xC0 JUMPI PUSH1 0x0 DUP1 REVERT JUMPDEST POP PUSH2 0xDB PUSH1 0x4 DUP1 CALLDATASIZE SUB DUP2 ADD SWAP1 PUSH2 0xD6 SWAP2 SWAP1 PUSH2 0x921 JUMP JUMPDEST PUSH2 0x3BB JUMP JUMPDEST PUSH1 0x40 MLOAD PUSH2 0xEE SWAP8 SWAP7 SWAP6 SWAP5 SWAP4 SWAP3 SWAP2 SWAP1 PUSH2 0x9E6 JUMP JUMPDEST PUSH1 0x40 MLOAD DUP1 SWAP2 SUB SWAP1 RETURN JUMPDEST PUSH1 0x0 DUP1 SLOAD SWAP1 POP SWAP1 JUMP JUMPDEST PUSH1 0x1 PUSH1 0x0 SWAP1 SLOAD SWAP1 PUSH2 0x100 EXP SWAP1 DIV PUSH20 0xFFFFFFFFFFFFFFFFFFFFFFFFFFFFFFFFFFFFFFFF AND PUSH20 0xFFFFFFFFFFFFFFFFFFFFFFFFFFFFFFFFFFFFFFFF AND PUSH4 0x23B872DD CALLER PUSH1 0x2 PUSH1 0x0 DUP6 DUP2 MSTORE PUSH1 0x20 ADD SWAP1 DUP2 MSTORE PUSH1 0x20 ADD PUSH1 0x0 KECCAK256 PUSH1 0x0 ADD PUSH1 0x0 SWAP1 SLOAD SWAP1 PUSH2 0x100 EXP SWAP1 DIV PUSH20 0xFFFFFFFFFFFFFFFFFFFFFFFFFFFFFFFFFFFFFFFF AND PUSH1 0x2 PUSH1 0x0 DUP7 DUP2 MSTORE PUSH1 0x20 ADD SWAP1 DUP2 MSTORE PUSH1 0x20 ADD PUSH1 0x0 KECCAK256 PUSH1 0x5 ADD SLOAD PUSH1 0x40 MLOAD DUP5 PUSH4 0xFFFFFFFF AND PUSH1 0xE0 SHL DUP2 MSTORE PUSH1 0x4 ADD PUSH2 0x1AB SWAP4 SWAP3 SWAP2 SWAP1 PUSH2 0xA71 JUMP JUMPDEST PUSH1 0x20 PUSH1 0x40 MLOAD DUP1 DUP4 SUB DUP2 PUSH1 0x0 DUP8 DUP1 EXTCODESIZE ISZERO DUP1 ISZERO PUSH2 0x1C5 JUMPI PUSH1 0x0 DUP1 REVERT JUMPDEST POP GAS CALL ISZERO DUP1 ISZERO PUSH2 0x1D9 JUMPI RETURNDATASIZE PUSH1 0x0 DUP1 RETURNDATACOPY RETURNDATASIZE PUSH1 0x0 REVERT JUMPDEST POP POP POP POP PUSH1 0x40 MLOAD RETURNDATASIZE PUSH1 0x1F NOT PUSH1 0x1F DUP3 ADD AND DUP3 ADD DUP1 PUSH1 0x40 MSTORE POP DUP2 ADD SWAP1 PUSH2 0x1FD SWAP2 SWAP1 PUSH2 0x809 JUMP JUMPDEST PUSH2 0x23C JUMPI PUSH1 0x40 MLOAD PUSH32 0x8C379A000000000000000000000000000000000000000000000000000000000 DUP2 MSTORE PUSH1 0x4 ADD PUSH2 0x233 SWAP1 PUSH2 0xAA8 JUMP JUMPDEST PUSH1 0x40 MLOAD DUP1 SWAP2 SUB SWAP1 REVERT JUMPDEST PUSH1 0x2 PUSH1 0x0 DUP3 DUP2 MSTORE PUSH1 0x20 ADD SWAP1 DUP2 MSTORE PUSH1 0x20 ADD PUSH1 0x0 KECCAK256 PUSH1 0x6 ADD PUSH1 0x0 DUP2 SLOAD DUP1 SWAP3 SWAP2 SWAP1 PUSH2 0x263 SWAP1 PUSH2 0xC8A JUMP JUMPDEST SWAP2 SWAP1 POP SSTORE POP POP JUMP JUMPDEST PUSH1 0x0 PUSH1 0x40 MLOAD DUP1 PUSH1 0xE0 ADD PUSH1 0x40 MSTORE DUP1 CALLER PUSH20 0xFFFFFFFFFFFFFFFFFFFFFFFFFFFFFFFFFFFFFFFF AND DUP2 MSTORE PUSH1 0x20 ADD DUP8 DUP2 MSTORE PUSH1 0x20 ADD DUP7 DUP2 MSTORE PUSH1 0x20 ADD DUP6 DUP2 MSTORE PUSH1 0x20 ADD DUP5 DUP2 MSTORE PUSH1 0x20 ADD DUP4 DUP2 MSTORE PUSH1 0x20 ADD DUP3 DUP2 MSTORE POP PUSH1 0x2 PUSH1 0x0 DUP1 SLOAD DUP2 MSTORE PUSH1 0x20 ADD SWAP1 DUP2 MSTORE PUSH1 0x20 ADD PUSH1 0x0 KECCAK256 PUSH1 0x0 DUP3 ADD MLOAD DUP2 PUSH1 0x0 ADD PUSH1 0x0 PUSH2 0x100 EXP DUP2 SLOAD DUP2 PUSH20 0xFFFFFFFFFFFFFFFFFFFFFFFFFFFFFFFFFFFFFFFF MUL NOT AND SWAP1 DUP4 PUSH20 0xFFFFFFFFFFFFFFFFFFFFFFFFFFFFFFFFFFFFFFFF AND MUL OR SWAP1 SSTORE POP PUSH1 0x20 DUP3 ADD MLOAD DUP2 PUSH1 0x1 ADD SWAP1 DUP1 MLOAD SWAP1 PUSH1 0x20 ADD SWAP1 PUSH2 0x32D SWAP3 SWAP2 SWAP1 PUSH2 0x6CC JUMP JUMPDEST POP PUSH1 0x40 DUP3 ADD MLOAD DUP2 PUSH1 0x2 ADD SWAP1 DUP1 MLOAD SWAP1 PUSH1 0x20 ADD SWAP1 PUSH2 0x34A SWAP3 SWAP2 SWAP1 PUSH2 0x6CC JUMP JUMPDEST POP PUSH1 0x60 DUP3 ADD MLOAD DUP2 PUSH1 0x3 ADD SWAP1 DUP1 MLOAD SWAP1 PUSH1 0x20 ADD SWAP1 PUSH2 0x367 SWAP3 SWAP2 SWAP1 PUSH2 0x6CC JUMP JUMPDEST POP PUSH1 0x80 DUP3 ADD MLOAD DUP2 PUSH1 0x4 ADD SWAP1 DUP1 MLOAD SWAP1 PUSH1 0x20 ADD SWAP1 PUSH2 0x384 SWAP3 SWAP2 SWAP1 PUSH2 0x6CC JUMP JUMPDEST POP PUSH1 0xA0 DUP3 ADD MLOAD DUP2 PUSH1 0x5 ADD SSTORE PUSH1 0xC0 DUP3 ADD MLOAD DUP2 PUSH1 0x6 ADD SSTORE SWAP1 POP POP PUSH1 0x0 DUP1 DUP2 SLOAD DUP1 SWAP3 SWAP2 SWAP1 PUSH2 0x3AE SWAP1 PUSH2 0xC8A JUMP JUMPDEST SWAP2 SWAP1 POP SSTORE POP POP POP POP POP POP POP JUMP JUMPDEST PUSH1 0x0 PUSH1 0x60 DUP1 PUSH1 0x60 DUP1 PUSH1 0x0 DUP1 PUSH1 0x2 PUSH1 0x0 DUP10 DUP2 MSTORE PUSH1 0x20 ADD SWAP1 DUP2 MSTORE PUSH1 0x20 ADD PUSH1 0x0 KECCAK256 PUSH1 0x0 ADD PUSH1 0x0 SWAP1 SLOAD SWAP1 PUSH2 0x100 EXP SWAP1 DIV PUSH20 0xFFFFFFFFFFFFFFFFFFFFFFFFFFFFFFFFFFFFFFFF AND PUSH1 0x2 PUSH1 0x0 DUP11 DUP2 MSTORE PUSH1 0x20 ADD SWAP1 DUP2 MSTORE PUSH1 0x20 ADD PUSH1 0x0 KECCAK256 PUSH1 0x1 ADD PUSH1 0x2 PUSH1 0x0 DUP12 DUP2 MSTORE PUSH1 0x20 ADD SWAP1 DUP2 MSTORE PUSH1 0x20 ADD PUSH1 0x0 KECCAK256 PUSH1 0x2 ADD PUSH1 0x2 PUSH1 0x0 DUP13 DUP2 MSTORE PUSH1 0x20 ADD SWAP1 DUP2 MSTORE PUSH1 0x20 ADD PUSH1 0x0 KECCAK256 PUSH1 0x3 ADD PUSH1 0x2 PUSH1 0x0 DUP14 DUP2 MSTORE PUSH1 0x20 ADD SWAP1 DUP2 MSTORE PUSH1 0x20 ADD PUSH1 0x0 KECCAK256 PUSH1 0x4 ADD PUSH1 0x2 PUSH1 0x0 DUP15 DUP2 MSTORE PUSH1 0x20 ADD SWAP1 DUP2 MSTORE PUSH1 0x20 ADD PUSH1 0x0 KECCAK256 PUSH1 0x5 ADD SLOAD PUSH1 0x2 PUSH1 0x0 DUP16 DUP2 MSTORE PUSH1 0x20 ADD SWAP1 DUP2 MSTORE PUSH1 0x20 ADD PUSH1 0x0 KECCAK256 PUSH1 0x6 ADD SLOAD DUP6 DUP1 SLOAD PUSH2 0x48F SWAP1 PUSH2 0xC27 JUMP JUMPDEST DUP1 PUSH1 0x1F ADD PUSH1 0x20 DUP1 SWAP2 DIV MUL PUSH1 0x20 ADD PUSH1 0x40 MLOAD SWAP1 DUP2 ADD PUSH1 0x40 MSTORE DUP1 SWAP3 SWAP2 SWAP1 DUP2 DUP2 MSTORE PUSH1 0x20 ADD DUP3 DUP1 SLOAD PUSH2 0x4BB SWAP1 PUSH2 0xC27 JUMP JUMPDEST DUP1 ISZERO PUSH2 0x508 JUMPI DUP1 PUSH1 0x1F LT PUSH2 0x4DD JUMPI PUSH2 0x100 DUP1 DUP4 SLOAD DIV MUL DUP4 MSTORE SWAP2 PUSH1 0x20 ADD SWAP2 PUSH2 0x508 JUMP JUMPDEST DUP3 ADD SWAP2 SWAP1 PUSH1 0x0 MSTORE PUSH1 0x20 PUSH1 0x0 KECCAK256 SWAP1 JUMPDEST DUP2 SLOAD DUP2 MSTORE SWAP1 PUSH1 0x1 ADD SWAP1 PUSH1 0x20 ADD DUP1 DUP4 GT PUSH2 0x4EB JUMPI DUP3 SWAP1 SUB PUSH1 0x1F AND DUP3 ADD SWAP2 JUMPDEST POP POP POP POP POP SWAP6 POP DUP5 DUP1 SLOAD PUSH2 0x51B SWAP1 PUSH2 0xC27 JUMP JUMPDEST DUP1 PUSH1 0x1F ADD PUSH1 0x20 DUP1 SWAP2 DIV MUL PUSH1 0x20 ADD PUSH1 0x40 MLOAD SWAP1 DUP2 ADD PUSH1 0x40 MSTORE DUP1 SWAP3 SWAP2 SWAP1 DUP2 DUP2 MSTORE PUSH1 0x20 ADD DUP3 DUP1 SLOAD PUSH2 0x547 SWAP1 PUSH2 0xC27 JUMP JUMPDEST DUP1 ISZERO PUSH2 0x594 JUMPI DUP1 PUSH1 0x1F LT PUSH2 0x569 JUMPI PUSH2 0x100 DUP1 DUP4 SLOAD DIV MUL DUP4 MSTORE SWAP2 PUSH1 0x20 ADD SWAP2 PUSH2 0x594 JUMP JUMPDEST DUP3 ADD SWAP2 SWAP1 PUSH1 0x0 MSTORE PUSH1 0x20 PUSH1 0x0 KECCAK256 SWAP1 JUMPDEST DUP2 SLOAD DUP2 MSTORE SWAP1 PUSH1 0x1 ADD SWAP1 PUSH1 0x20 ADD DUP1 DUP4 GT PUSH2 0x577 JUMPI DUP3 SWAP1 SUB PUSH1 0x1F AND DUP3 ADD SWAP2 JUMPDEST POP POP POP POP POP SWAP5 POP DUP4 DUP1 SLOAD PUSH2 0x5A7 SWAP1 PUSH2 0xC27 JUMP JUMPDEST DUP1 PUSH1 0x1F ADD PUSH1 0x20 DUP1 SWAP2 DIV MUL PUSH1 0x20 ADD PUSH1 0x40 MLOAD SWAP1 DUP2 ADD PUSH1 0x40 MSTORE DUP1 SWAP3 SWAP2 SWAP1 DUP2 DUP2 MSTORE PUSH1 0x20 ADD DUP3 DUP1 SLOAD PUSH2 0x5D3 SWAP1 PUSH2 0xC27 JUMP JUMPDEST DUP1 ISZERO PUSH2 0x620 JUMPI DUP1 PUSH1 0x1F LT PUSH2 0x5F5 JUMPI PUSH2 0x100 DUP1 DUP4 SLOAD DIV MUL DUP4 MSTORE SWAP2 PUSH1 0x20 ADD SWAP2 PUSH2 0x620 JUMP JUMPDEST DUP3 ADD SWAP2 SWAP1 PUSH1 0x0 MSTORE PUSH1 0x20 PUSH1 0x0 KECCAK256 SWAP1 JUMPDEST DUP2 SLOAD DUP2 MSTORE SWAP1 PUSH1 0x1 ADD SWAP1 PUSH1 0x20 ADD DUP1 DUP4 GT PUSH2 0x603 JUMPI DUP3 SWAP1 SUB PUSH1 0x1F AND DUP3 ADD SWAP2 JUMPDEST POP POP POP POP POP SWAP4 POP DUP3 DUP1 SLOAD PUSH2 0x633 SWAP1 PUSH2 0xC27 JUMP JUMPDEST DUP1 PUSH1 0x1F ADD PUSH1 0x20 DUP1 SWAP2 DIV MUL PUSH1 0x20 ADD PUSH1 0x40 MLOAD SWAP1 DUP2 ADD PUSH1 0x40 MSTORE DUP1 SWAP3 SWAP2 SWAP1 DUP2 DUP2 MSTORE PUSH1 0x20 ADD DUP3 DUP1 SLOAD PUSH2 0x65F SWAP1 PUSH2 0xC27 JUMP JUMPDEST DUP1 ISZERO PUSH2 0x6AC JUMPI DUP1 PUSH1 0x1F LT PUSH2 0x681 JUMPI PUSH2 0x100 DUP1 DUP4 SLOAD DIV MUL DUP4 MSTORE SWAP2 PUSH1 0x20 ADD SWAP2 PUSH2 0x6AC JUMP JUMPDEST DUP3 ADD SWAP2 SWAP1 PUSH1 0x0 MSTORE PUSH1 0x20 PUSH1 0x0 KECCAK256 SWAP1 JUMPDEST DUP2 SLOAD DUP2 MSTORE SWAP1 PUSH1 0x1 ADD SWAP1 PUSH1 0x20 ADD DUP1 DUP4 GT PUSH2 0x68F JUMPI DUP3 SWAP1 SUB PUSH1 0x1F AND DUP3 ADD SWAP2 JUMPDEST POP POP POP POP POP SWAP3 POP SWAP7 POP SWAP7 POP SWAP7 POP SWAP7 POP SWAP7 POP SWAP7 POP SWAP7 POP SWAP2 SWAP4 SWAP6 SWAP8 SWAP1 SWAP3 SWAP5 SWAP7 POP JUMP JUMPDEST DUP3 DUP1 SLOAD PUSH2 0x6D8 SWAP1 PUSH2 0xC27 JUMP JUMPDEST SWAP1 PUSH1 0x0 MSTORE PUSH1 0x20 PUSH1 0x0 KECCAK256 SWAP1 PUSH1 0x1F ADD PUSH1 0x20 SWAP1 DIV DUP2 ADD SWAP3 DUP3 PUSH2 0x6FA JUMPI PUSH1 0x0 DUP6 SSTORE PUSH2 0x741 JUMP JUMPDEST DUP3 PUSH1 0x1F LT PUSH2 0x713 JUMPI DUP1 MLOAD PUSH1 0xFF NOT AND DUP4 DUP1 ADD OR DUP6 SSTORE PUSH2 0x741 JUMP JUMPDEST DUP3 DUP1 ADD PUSH1 0x1 ADD DUP6 SSTORE DUP3 ISZERO PUSH2 0x741 JUMPI SWAP2 DUP3 ADD JUMPDEST DUP3 DUP2 GT ISZERO PUSH2 0x740 JUMPI DUP3 MLOAD DUP3 SSTORE SWAP2 PUSH1 0x20 ADD SWAP2 SWAP1 PUSH1 0x1 ADD SWAP1 PUSH2 0x725 JUMP JUMPDEST JUMPDEST POP SWAP1 POP PUSH2 0x74E SWAP2 SWAP1 PUSH2 0x752 JUMP JUMPDEST POP SWAP1 JUMP JUMPDEST JUMPDEST DUP1 DUP3 GT ISZERO PUSH2 0x76B JUMPI PUSH1 0x0 DUP2 PUSH1 0x0 SWAP1 SSTORE POP PUSH1 0x1 ADD PUSH2 0x753 JUMP JUMPDEST POP SWAP1 JUMP JUMPDEST PUSH1 0x0 PUSH2 0x782 PUSH2 0x77D DUP5 PUSH2 0xB08 JUMP JUMPDEST PUSH2 0xAE3 JUMP JUMPDEST SWAP1 POP DUP3 DUP2 MSTORE PUSH1 0x20 DUP2 ADD DUP5 DUP5 DUP5 ADD GT ISZERO PUSH2 0x79E JUMPI PUSH2 0x79D PUSH2 0xD65 JUMP JUMPDEST JUMPDEST PUSH2 0x7A9 DUP5 DUP3 DUP6 PUSH2 0xBE5 JUMP JUMPDEST POP SWAP4 SWAP3 POP POP POP JUMP JUMPDEST PUSH1 0x0 DUP2 MLOAD SWAP1 POP PUSH2 0x7C0 DUP2 PUSH2 0xDAE JUMP JUMPDEST SWAP3 SWAP2 POP POP JUMP JUMPDEST PUSH1 0x0 DUP3 PUSH1 0x1F DUP4 ADD SLT PUSH2 0x7DB JUMPI PUSH2 0x7DA PUSH2 0xD60 JUMP JUMPDEST JUMPDEST DUP2 CALLDATALOAD PUSH2 0x7EB DUP5 DUP3 PUSH1 0x20 DUP7 ADD PUSH2 0x76F JUMP JUMPDEST SWAP2 POP POP SWAP3 SWAP2 POP POP JUMP JUMPDEST PUSH1 0x0 DUP2 CALLDATALOAD SWAP1 POP PUSH2 0x803 DUP2 PUSH2 0xDC5 JUMP JUMPDEST SWAP3 SWAP2 POP POP JUMP JUMPDEST PUSH1 0x0 PUSH1 0x20 DUP3 DUP5 SUB SLT ISZERO PUSH2 0x81F JUMPI PUSH2 0x81E PUSH2 0xD6F JUMP JUMPDEST JUMPDEST PUSH1 0x0 PUSH2 0x82D DUP5 DUP3 DUP6 ADD PUSH2 0x7B1 JUMP JUMPDEST SWAP2 POP POP SWAP3 SWAP2 POP POP JUMP JUMPDEST PUSH1 0x0 DUP1 PUSH1 0x0 DUP1 PUSH1 0x0 PUSH1 0xA0 DUP7 DUP9 SUB SLT ISZERO PUSH2 0x852 JUMPI PUSH2 0x851 PUSH2 0xD6F JUMP JUMPDEST JUMPDEST PUSH1 0x0 DUP7 ADD CALLDATALOAD PUSH8 0xFFFFFFFFFFFFFFFF DUP2 GT ISZERO PUSH2 0x870 JUMPI PUSH2 0x86F PUSH2 0xD6A JUMP JUMPDEST JUMPDEST PUSH2 0x87C DUP9 DUP3 DUP10 ADD PUSH2 0x7C6 JUMP JUMPDEST SWAP6 POP POP PUSH1 0x20 DUP7 ADD CALLDATALOAD PUSH8 0xFFFFFFFFFFFFFFFF DUP2 GT ISZERO PUSH2 0x89D JUMPI PUSH2 0x89C PUSH2 0xD6A JUMP JUMPDEST JUMPDEST PUSH2 0x8A9 DUP9 DUP3 DUP10 ADD PUSH2 0x7C6 JUMP JUMPDEST SWAP5 POP POP PUSH1 0x40 DUP7 ADD CALLDATALOAD PUSH8 0xFFFFFFFFFFFFFFFF DUP2 GT ISZERO PUSH2 0x8CA JUMPI PUSH2 0x8C9 PUSH2 0xD6A JUMP JUMPDEST JUMPDEST PUSH2 0x8D6 DUP9 DUP3 DUP10 ADD PUSH2 0x7C6 JUMP JUMPDEST SWAP4 POP POP PUSH1 0x60 DUP7 ADD CALLDATALOAD PUSH8 0xFFFFFFFFFFFFFFFF DUP2 GT ISZERO PUSH2 0x8F7 JUMPI PUSH2 0x8F6 PUSH2 0xD6A JUMP JUMPDEST JUMPDEST PUSH2 0x903 DUP9 DUP3 DUP10 ADD PUSH2 0x7C6 JUMP JUMPDEST SWAP3 POP POP PUSH1 0x80 PUSH2 0x914 DUP9 DUP3 DUP10 ADD PUSH2 0x7F4 JUMP JUMPDEST SWAP2 POP POP SWAP3 SWAP6 POP SWAP3 SWAP6 SWAP1 SWAP4 POP JUMP JUMPDEST PUSH1 0x0 PUSH1 0x20 DUP3 DUP5 SUB SLT ISZERO PUSH2 0x937 JUMPI PUSH2 0x936 PUSH2 0xD6F JUMP JUMPDEST JUMPDEST PUSH1 0x0 PUSH2 0x945 DUP5 DUP3 DUP6 ADD PUSH2 0x7F4 JUMP JUMPDEST SWAP2 POP POP SWAP3 SWAP2 POP POP JUMP JUMPDEST PUSH2 0x957 DUP2 PUSH2 0xBAF JUMP JUMPDEST DUP3 MSTORE POP POP JUMP JUMPDEST PUSH2 0x966 DUP2 PUSH2 0xB67 JUMP JUMPDEST DUP3 MSTORE POP POP JUMP JUMPDEST PUSH2 0x975 DUP2 PUSH2 0xB55 JUMP JUMPDEST DUP3 MSTORE POP POP JUMP JUMPDEST PUSH1 0x0 PUSH2 0x986 DUP3 PUSH2 0xB39 JUMP JUMPDEST PUSH2 0x990 DUP2 DUP6 PUSH2 0xB44 JUMP JUMPDEST SWAP4 POP PUSH2 0x9A0 DUP2 DUP6 PUSH1 0x20 DUP7 ADD PUSH2 0xBF4 JUMP JUMPDEST PUSH2 0x9A9 DUP2 PUSH2 0xD74 JUMP JUMPDEST DUP5 ADD SWAP2 POP POP SWAP3 SWAP2 POP POP JUMP JUMPDEST PUSH1 0x0 PUSH2 0x9C1 PUSH1 0x10 DUP4 PUSH2 0xB44 JUMP JUMPDEST SWAP2 POP PUSH2 0x9CC DUP3 PUSH2 0xD85 JUMP JUMPDEST PUSH1 0x20 DUP3 ADD SWAP1 POP SWAP2 SWAP1 POP JUMP JUMPDEST PUSH2 0x9E0 DUP2 PUSH2 0xBA5 JUMP JUMPDEST DUP3 MSTORE POP POP JUMP JUMPDEST PUSH1 0x0 PUSH1 0xE0 DUP3 ADD SWAP1 POP PUSH2 0x9FB PUSH1 0x0 DUP4 ADD DUP11 PUSH2 0x95D JUMP JUMPDEST DUP2 DUP2 SUB PUSH1 0x20 DUP4 ADD MSTORE PUSH2 0xA0D DUP2 DUP10 PUSH2 0x97B JUMP JUMPDEST SWAP1 POP DUP2 DUP2 SUB PUSH1 0x40 DUP4 ADD MSTORE PUSH2 0xA21 DUP2 DUP9 PUSH2 0x97B JUMP JUMPDEST SWAP1 POP DUP2 DUP2 SUB PUSH1 0x60 DUP4 ADD MSTORE PUSH2 0xA35 DUP2 DUP8 PUSH2 0x97B JUMP JUMPDEST SWAP1 POP DUP2 DUP2 SUB PUSH1 0x80 DUP4 ADD MSTORE PUSH2 0xA49 DUP2 DUP7 PUSH2 0x97B JUMP JUMPDEST SWAP1 POP PUSH2 0xA58 PUSH1 0xA0 DUP4 ADD DUP6 PUSH2 0x9D7 JUMP JUMPDEST PUSH2 0xA65 PUSH1 0xC0 DUP4 ADD DUP5 PUSH2 0x9D7 JUMP JUMPDEST SWAP9 SWAP8 POP POP POP POP POP POP POP POP JUMP JUMPDEST PUSH1 0x0 PUSH1 0x60 DUP3 ADD SWAP1 POP PUSH2 0xA86 PUSH1 0x0 DUP4 ADD DUP7 PUSH2 0x96C JUMP JUMPDEST PUSH2 0xA93 PUSH1 0x20 DUP4 ADD DUP6 PUSH2 0x94E JUMP JUMPDEST PUSH2 0xAA0 PUSH1 0x40 DUP4 ADD DUP5 PUSH2 0x9D7 JUMP JUMPDEST SWAP5 SWAP4 POP POP POP POP JUMP JUMPDEST PUSH1 0x0 PUSH1 0x20 DUP3 ADD SWAP1 POP DUP2 DUP2 SUB PUSH1 0x0 DUP4 ADD MSTORE PUSH2 0xAC1 DUP2 PUSH2 0x9B4 JUMP JUMPDEST SWAP1 POP SWAP2 SWAP1 POP JUMP JUMPDEST PUSH1 0x0 PUSH1 0x20 DUP3 ADD SWAP1 POP PUSH2 0xADD PUSH1 0x0 DUP4 ADD DUP5 PUSH2 0x9D7 JUMP JUMPDEST SWAP3 SWAP2 POP POP JUMP JUMPDEST PUSH1 0x0 PUSH2 0xAED PUSH2 0xAFE JUMP JUMPDEST SWAP1 POP PUSH2 0xAF9 DUP3 DUP3 PUSH2 0xC59 JUMP JUMPDEST SWAP2 SWAP1 POP JUMP JUMPDEST PUSH1 0x0 PUSH1 0x40 MLOAD SWAP1 POP SWAP1 JUMP JUMPDEST PUSH1 0x0 PUSH8 0xFFFFFFFFFFFFFFFF DUP3 GT ISZERO PUSH2 0xB23 JUMPI PUSH2 0xB22 PUSH2 0xD31 JUMP JUMPDEST JUMPDEST PUSH2 0xB2C DUP3 PUSH2 0xD74 JUMP JUMPDEST SWAP1 POP PUSH1 0x20 DUP2 ADD SWAP1 POP SWAP2 SWAP1 POP JUMP JUMPDEST PUSH1 0x0 DUP2 MLOAD SWAP1 POP SWAP2 SWAP1 POP JUMP JUMPDEST PUSH1 0x0 DUP3 DUP3 MSTORE PUSH1 0x20 DUP3 ADD SWAP1 POP SWAP3 SWAP2 POP POP JUMP JUMPDEST PUSH1 0x0 PUSH2 0xB60 DUP3 PUSH2 0xB85 JUMP JUMPDEST SWAP1 POP SWAP2 SWAP1 POP JUMP JUMPDEST PUSH1 0x0 PUSH2 0xB72 DUP3 PUSH2 0xB85 JUMP JUMPDEST SWAP1 POP SWAP2 SWAP1 POP JUMP JUMPDEST PUSH1 0x0 DUP2 ISZERO ISZERO SWAP1 POP SWAP2 SWAP1 POP JUMP JUMPDEST PUSH1 0x0 PUSH20 0xFFFFFFFFFFFFFFFFFFFFFFFFFFFFFFFFFFFFFFFF DUP3 AND SWAP1 POP SWAP2 SWAP1 POP JUMP JUMPDEST PUSH1 0x0 DUP2 SWAP1 POP SWAP2 SWAP1 POP JUMP JUMPDEST PUSH1 0x0 PUSH2 0xBBA DUP3 PUSH2 0xBC1 JUMP JUMPDEST SWAP1 POP SWAP2 SWAP1 POP JUMP JUMPDEST PUSH1 0x0 PUSH2 0xBCC DUP3 PUSH2 0xBD3 JUMP JUMPDEST SWAP1 POP SWAP2 SWAP1 POP JUMP JUMPDEST PUSH1 0x0 PUSH2 0xBDE DUP3 PUSH2 0xB85 JUMP JUMPDEST SWAP1 POP SWAP2 SWAP1 POP JUMP JUMPDEST DUP3 DUP2 DUP4 CALLDATACOPY PUSH1 0x0 DUP4 DUP4 ADD MSTORE POP POP POP JUMP JUMPDEST PUSH1 0x0 JUMPDEST DUP4 DUP2 LT ISZERO PUSH2 0xC12 JUMPI DUP1 DUP3 ADD MLOAD DUP2 DUP5 ADD MSTORE PUSH1 0x20 DUP2 ADD SWAP1 POP PUSH2 0xBF7 JUMP JUMPDEST DUP4 DUP2 GT ISZERO PUSH2 0xC21 JUMPI PUSH1 0x0 DUP5 DUP5 ADD MSTORE JUMPDEST POP POP POP POP JUMP JUMPDEST PUSH1 0x0 PUSH1 0x2 DUP3 DIV SWAP1 POP PUSH1 0x1 DUP3 AND DUP1 PUSH2 0xC3F JUMPI PUSH1 0x7F DUP3 AND SWAP2 POP JUMPDEST PUSH1 0x20 DUP3 LT DUP2 EQ ISZERO PUSH2 0xC53 JUMPI PUSH2 0xC52 PUSH2 0xD02 JUMP JUMPDEST JUMPDEST POP SWAP2 SWAP1 POP JUMP JUMPDEST PUSH2 0xC62 DUP3 PUSH2 0xD74 JUMP JUMPDEST DUP2 ADD DUP2 DUP2 LT PUSH8 0xFFFFFFFFFFFFFFFF DUP3 GT OR ISZERO PUSH2 0xC81 JUMPI PUSH2 0xC80 PUSH2 0xD31 JUMP JUMPDEST JUMPDEST DUP1 PUSH1 0x40 MSTORE POP POP POP JUMP JUMPDEST PUSH1 0x0 PUSH2 0xC95 DUP3 PUSH2 0xBA5 JUMP JUMPDEST SWAP2 POP PUSH32 0xFFFFFFFFFFFFFFFFFFFFFFFFFFFFFFFFFFFFFFFFFFFFFFFFFFFFFFFFFFFFFFFF DUP3 EQ ISZERO PUSH2 0xCC8 JUMPI PUSH2 0xCC7 PUSH2 0xCD3 JUMP JUMPDEST JUMPDEST PUSH1 0x1 DUP3 ADD SWAP1 POP SWAP2 SWAP1 POP JUMP JUMPDEST PUSH32 0x4E487B7100000000000000000000000000000000000000000000000000000000 PUSH1 0x0 MSTORE PUSH1 0x11 PUSH1 0x4 MSTORE PUSH1 0x24 PUSH1 0x0 REVERT JUMPDEST PUSH32 0x4E487B7100000000000000000000000000000000000000000000000000000000 PUSH1 0x0 MSTORE PUSH1 0x22 PUSH1 0x4 MSTORE PUSH1 0x24 PUSH1 0x0 REVERT JUMPDEST PUSH32 0x4E487B7100000000000000000000000000000000000000000000000000000000 PUSH1 0x0 MSTORE PUSH1 0x41 PUSH1 0x4 MSTORE PUSH1 0x24 PUSH1 0x0 REVERT JUMPDEST PUSH1 0x0 DUP1 REVERT JUMPDEST PUSH1 0x0 DUP1 REVERT JUMPDEST PUSH1 0x0 DUP1 REVERT JUMPDEST PUSH1 0x0 DUP1 REVERT JUMPDEST PUSH1 0x0 PUSH1 0x1F NOT PUSH1 0x1F DUP4 ADD AND SWAP1 POP SWAP2 SWAP1 POP JUMP JUMPDEST PUSH32 0x5472616E73666572206661696C65642E00000000000000000000000000000000 PUSH1 0x0 DUP3 ADD MSTORE POP JUMP JUMPDEST PUSH2 0xDB7 DUP2 PUSH2 0xB79 JUMP JUMPDEST DUP2 EQ PUSH2 0xDC2 JUMPI PUSH1 0x0 DUP1 REVERT JUMPDEST POP JUMP JUMPDEST PUSH2 0xDCE DUP2 PUSH2 0xBA5 JUMP JUMPDEST DUP2 EQ PUSH2 0xDD9 JUMPI PUSH1 0x0 DUP1 REVERT JUMPDEST POP JUMP INVALID LOG2 PUSH5 0x6970667358 0x22 SLT KECCAK256 PUSH14 0x91A9AC8DBF10F4F75BA90311E1F1 LOG3 0xED SWAP6 0x27 0xC3 0xD3 0xAC 0xC0 SGT SLOAD STOP PUSH29 0x84D368312564736F6C6343000807003300000000000000000000000000 "
				},
				"gasEstimates": {
					"creation": {
						"codeDepositCost": "720400",
						"executionCost": "30026",
						"totalCost": "750426"
					},
					"external": {
						"buyProduct(uint256)": "infinite",
						"getProductsLength()": "2415",
						"readProduct(uint256)": "infinite",
						"writeProduct(string,string,string,string,uint256)": "infinite"
					}
				},
				"methodIdentifiers": {
					"buyProduct(uint256)": "8642269e",
					"getProductsLength()": "1155dfe5",
					"readProduct(uint256)": "fffa7e2e",
					"writeProduct(string,string,string,string,uint256)": "8da8f27b"
				}
			},
			"storageLayout": {
				"storage": [
					{
						"astId": 71,
						"contract": "contract/marketplace.sol:Marketplace",
						"label": "productsLength",
						"offset": 0,
						"slot": "0",
						"type": "t_uint256"
					},
					{
						"astId": 74,
						"contract": "contract/marketplace.sol:Marketplace",
						"label": "cUsdTokenAddress",
						"offset": 0,
						"slot": "1",
						"type": "t_address"
					},
					{
						"astId": 94,
						"contract": "contract/marketplace.sol:Marketplace",
						"label": "products",
						"offset": 0,
						"slot": "2",
						"type": "t_mapping(t_uint256,t_struct(Product)89_storage)"
					}
				],
				"types": {
					"t_address": {
						"encoding": "inplace",
						"label": "address",
						"numberOfBytes": "20"
					},
					"t_address_payable": {
						"encoding": "inplace",
						"label": "address payable",
						"numberOfBytes": "20"
					},
					"t_mapping(t_uint256,t_struct(Product)89_storage)": {
						"encoding": "mapping",
						"key": "t_uint256",
						"label": "mapping(uint256 => struct Marketplace.Product)",
						"numberOfBytes": "32",
						"value": "t_struct(Product)89_storage"
					},
					"t_string_storage": {
						"encoding": "bytes",
						"label": "string",
						"numberOfBytes": "32"
					},
					"t_struct(Product)89_storage": {
						"encoding": "inplace",
						"label": "struct Marketplace.Product",
						"members": [
							{
								"astId": 76,
								"contract": "contract/marketplace.sol:Marketplace",
								"label": "OId",
								"offset": 0,
								"slot": "0",
								"type": "t_address_payable"
							},
							{
								"astId": 78,
								"contract": "contract/marketplace.sol:Marketplace",
								"label": "name",
								"offset": 0,
								"slot": "1",
								"type": "t_string_storage"
							},
							{
								"astId": 80,
								"contract": "contract/marketplace.sol:Marketplace",
								"label": "image",
								"offset": 0,
								"slot": "2",
								"type": "t_string_storage"
							},
							{
								"astId": 82,
								"contract": "contract/marketplace.sol:Marketplace",
								"label": "description",
								"offset": 0,
								"slot": "3",
								"type": "t_string_storage"
							},
							{
								"astId": 84,
								"contract": "contract/marketplace.sol:Marketplace",
								"label": "location",
								"offset": 0,
								"slot": "4",
								"type": "t_string_storage"
							},
							{
								"astId": 86,
								"contract": "contract/marketplace.sol:Marketplace",
								"label": "price",
								"offset": 0,
								"slot": "5",
								"type": "t_uint256"
							},
							{
								"astId": 88,
								"contract": "contract/marketplace.sol:Marketplace",
								"label": "sold",
								"offset": 0,
								"slot": "6",
								"type": "t_uint256"
							}
						],
						"numberOfBytes": "224"
					},
					"t_uint256": {
						"encoding": "inplace",
						"label": "uint256",
						"numberOfBytes": "32"
					}
				}
			},
			"userdoc": {
				"kind": "user",
				"methods": {},
				"version": 1
			}
		}
	}
}